:020000040800F2
:100000000000022049D00208492B00084F2B0008AD
:10001000552B00085B2B0008612B00080000000036
:10002000000000000000000000000000E19C00084B
:10003000672B000800000000219F0008752B0008B6
:1000400099D0020899D0020899D0020899D00208E4
:1000500099D0020899D0020899D0020899D00208D4
:1000600099D0020899D0020899D0020899D00208C4
:1000700099D0020899D0020899D0020899D00208B4
:1000800099D0020899D0020899D0020899D00208A4
:1000900099D0020899D0020899D0020899D0020894
:1000A00099D0020899D0020899D0020899D0020884
:1000B00099D0020899D0020899D0020899D0020874
:1000C00099D0020899D0020899D0020899D0020864
:1000D00099D0020899D0020899D0020899D0020854
:1000E00099D0020899D0020899D0020899D0020844
:1000F00099D0020899D0020899D0020899D0020834
:1001000099D0020899D0020899D0020899D0020823
:1001100099D0020899D0020899D0020899D0020813
:1001200099D0020899D0020899D0020899D0020803
:1001300099D00208912B000899D0020899D00208A2
:1001400099D0020899D0020899D0020899D00208E3
:1001500099D0020899D0020899D0020899D00208D3
:1001600099D0020899D0020899D0020899D00208C3
:1001700099D0020899D0020899D002080000000026
:0801800099D0020899D0020891
:1001900010B5054C237833B9044B13B10448AFF3C1
:1001A00000800123237010BD7005002000000000B6
:1001B0003CF2020808B5034B1BB103490348AFF3F7
:1001C000008008BD00000000740500203CF2020819
:1001D00010F8012B11F8013B012A28BF9A42F7D0F1
:1001E000D01A7047034613F8012B002AFBD1181AC6
:1001F000013870470000000000000000000000000F
:1002000001F0FF01102A2BDB10F0070F08D010F8C7
:10021000013B013A8B422DD010F0070F42B3F6D1CB
:10022000F0B441EA012141EA014122F007047FF0E4
:1002300000070023F0E80256083C85EA010586EA3B
:10024000010685FA47F5A3FA87F586FA47F6A5FA77
:1002500087F68EB9EED1F0BC01F0FF0102F0070283
:1002600032B110F8013B013A83EA010313B1F8D12E
:100270000020704701387047002D06BF354603380F
:10028000073815F0010F07D1013015F4807F02BF48
:10029000013015F4C03F0130F0BC0138704700BF99
:1002A00080F0004002E000BF81F0004142001FBF2B
:1002B0005FEA410392EA030F7FEA226C7FEA236C34
:1002C0006AD04FEA1262D2EB1363C1BFD218414029
:1002D00048404140B8BF5B42192B88BF704710F0BF
:1002E000004F40F4000020F07F4018BF404211F062
:1002F000004F41F4000121F07F4118BF494292EACA
:10030000030F3FD0A2F1010241FA03FC10EB0C00F5
:10031000C3F1200301FA03F100F0004302D5494282
:1003200060EB4000B0F5000F13D3B0F1807F06D32F
:1003300040084FEA310102F10102FE2A51D2B1F127
:10034000004F40EBC25008BF20F0010040EA03001C
:100350007047490040EB000010F4000FA2F10102C9
:10036000EDD1B0FA80FCACF1080CB2EB0C0200FA53
:100370000CF0AABF00EBC25052421843BCBFD040A1
:100380001843704792F0000F81F4000106BF80F41B
:1003900000000132013BB5E74FEA41037FEA226CDE
:1003A00018BF7FEA236C21D092EA030F04D092F0A9
:1003B000000F08BF0846704790EA010F1CBF0020DD
:1003C000704712F07F4F04D1400028BF40F000403A
:1003D000704712F100723CBF00F50000704700F05A
:1003E000004343F0FE4040F4000070477FEA226281
:1003F00016BF08467FEA23630146420206BF5FEA52
:10040000412390EA010F40F4800070474FF0000351
:1004100004E000BF10F0004348BF40425FEA000C18
:1004200008BF704743F0964301464FF000001CE0C0
:1004300050EA010208BF70474FF000030AE000BF16
:1004400050EA010208BF704711F0004302D5404254
:1004500061EB41015FEA010C02BF844601460020C6
:1004600043F0B64308BFA3F18053A3F50003BCFAE1
:100470008CF2083AA3EBC25310DB01FA02FC63448E
:1004800000FA02FCC2F12002BCF1004F20FA02F295
:1004900043EB020008BF20F00100704702F1200288
:1004A00001FA02FCC2F1200250EA4C0021FA02F2E9
:1004B00043EB020008BF20EADC7070477BB972B9D9
:1004C0000029BEBF00204FF0004106E008BF002811
:1004D0001CBF6FF000414FF0FF3001F0ABB9ADF140
:1004E000080C6DE904CE002909DB002B1ADB00F0B3
:1004F0006DF8DDF804E0DDE9022304B07047404206
:1005000061EB4101002B1BDB00F060F8DDF804E03B
:10051000DDE9022304B0404261EB4101524263EB4A
:1005200043037047524263EB430300F04FF8DDF89A
:1005300004E0DDE9022304B0404261EB4101704771
:10054000524263EB430300F041F8DDF804E0DDE9DB
:10055000022304B0524263EB4303704753B94AB9D4
:10056000002908BF00281CBF4FF0FF314FF0FF30BB
:1005700001F060B9ADF1080C6DE904CE00F026F889
:10058000DDF804E0DDE9022304B07047D0B501F0E6
:10059000B7FA00220B4B06460F4601F009FB01F0AB
:1005A00019FD044601F08AFA0022074B01F000FB16
:1005B00002460B463046394601F042F901F00AFD89
:1005C0002146D0BD0000F03D0000F0412DE9F0478C
:1005D000089E04468846002B40F085808A421546D6
:1005E00048D9B2FA82F24AB1C2F1200701FA02F305
:1005F00020FA07F7954047EA030894404FEA154E62
:10060000230CB8FBFEF71FFA85FC0EFB178843EAA4
:10061000084307FB0CF1994209D9EB1807F1FF30A9
:1006200080F0E380994240F2E080023F2B445B1A65
:10063000A4B2B3FBFEF00EFB103344EA034400FB0C
:100640000CFCA44509D92C1900F1FF3380F0CB80B4
:10065000A44540F2C88002382C4440EA0740A4EB8D
:100660000C0400271EB1D4400023C6E900433946DC
:10067000BDE8F087002A53D0B2FA82F2002A40F097
:10068000B680491B4FEA154E1FFA85F80127B1FBCA
:10069000FEFC230C0EFB1C1143EA014308FB0CF18A
:1006A000994207D9EB180CF1FF3002D2994200F2BF
:1006B000EC808446591AA3B2B1FBFEF00EFB101475
:1006C00043EA044408FB00F8A04507D92C1900F1BF
:1006D000FF3302D2A04500F2DC801846A4EB0804E8
:1006E00040EA0C40BEE78B4208D9002E78D00027A4
:1006F000C6E9000138463946BDE8F087B3FA83F70A
:100700007FB98B4202D3824200F2BD80841A61EB32
:10071000030301209846002EA9D0C6E90048A6E7A9
:10072000FFDEC7F12005BB4022FA05FC4CEA030CB2
:1007300001FA07F420FA05F821FA05F34FEA1C4EF6
:1007400048EA0404B3FBFEF9210C0EFB19331FFA2F
:100750008CF841EA034309FB08FA9A4502FA07F2CA
:1007600000FA07F10BD91CEB030309F1FF3080F00D
:1007700088809A4540F28580A9F102096344A3EB81
:100780000A03A4B2B3FBFEF00EFB103344EA0344A9
:1007900000FB08F8A04508D91CEB040400F1FF3366
:1007A0006BD2A04569D90238644440EA0940A4EB01
:1007B0000804A0FB02894C45C6464B4654D351D091
:1007C000002E69D0B1EB0E0264EB030404FA05F5C8
:1007D00022FA07F3FC401D43C6E90054002746E710
:1007E0003746304643E7184637E707461FE7C2F16A
:1007F000200320FA03F7954001FA02F021FA03F3EF
:100800004FEA154E3843010CB3FBFEF71FFA85F88B
:100810000EFB173341EA034107FB08F38B4204FA4E
:1008200002F407D9691807F1FF3C28D28B4226D978
:10083000023F2944CB1A81B2B3FBFEF00EFB10330A
:1008400041EA034100FB08F38B4207D9691800F124
:10085000FF3C10D28B420ED902382944C91A40EA13
:10086000074714E74145ABD2B8EB020E69EB0C0227
:1008700001381346A4E76046F0E7184695E7674657
:10088000D8E781467BE7384645E7ACF1020C2B44BC
:1008900010E702382C4421E73746E8E603685A009F
:1008A0004CBF43F0004323F000431844704700BF9F
:1008B00069B32DE9F04701F1FF3917460646C846EE
:1008C0004FF0000A0AEB080404EBD4746410E5004E
:1008D00071190846FFF7E2FFA145034605F108003C
:1008E000304409D0BB4209D8FFF7D8FF0138B842DD
:1008F0000AD204F1010AE5E7BB4205D9A24502D0BC
:1009000004F1FF38DEE700210846BDE8F08708461D
:10091000704700BF012807D0022807D0044B0028E9
:100920000CBF1846002070470248704702487047C5
:10093000F10F0008F50F0008F90F000830B5244B3F
:1009400083B004468D1E4BB301A92846AFF3008047
:10095000F0B101992A46FFF7ABFF0146C0B1FFF79E
:100960009DFF4B68A064012B2ED0002B01F10400E9
:1009700026DBFFF793FF0023C4E913030368002B72
:1009800012DBFFF78BFF00232061184603B030BD58
:10099000002323610923184603B030BD0D490E48DA
:1009A000091AC9100191D5E7C3F30360FFF7B2FF3D
:1009B000002814BF002309232061184603B030BD6E
:1009C0000123C4E91303D9E7002323610523DCE7EE
:1009D000000000002C700308646F03080368DA0746
:1009E00010B5044606D49B0700F1480009D500F075
:1009F00059FC2368590709D51A070ED5DB0613D50C
:100A000010BD00F047FC23685907F5D404F1D0006D
:100A100000F050FC23681A07F0D404F5A87000F029
:100A200051FC2368DB06EBD404F5E870BDE8104008
:100A300000F08CBC036803B103441846704700BF44
:100A400009207047704700BF70B504460D46296CF9
:100A50002046FFF773FF064688B92B6C63612A4670
:100A600023692146012098470828F0D0072806D19D
:100A70003046296CFFF7E6FF281D00F0FFFB2DF044
:100A80004BFE00BF2DE9F0470C1D054617460FCC65
:100A9000ADF5727D03AE0FC60FCC0FC60FCC0FC6DF
:100AA00094E80F0002ACD5F80C80D5F8189086E8D1
:100AB0000F0000232846216C2360FFF73FFF002F23
:100AC000064614BF0A27092746BB236C6B614FF407
:100AD000F07221467AA82CF049FD2B697AAA2946A2
:100AE00038469847889B8246CDE900493946636479
:100AF0002A462B460120C047D8B94FF4F0727AA994
:100B000020462CF033FDBAF1080F18D1216C28468D
:100B1000FFF714FF06460927002ED6D0A36B47F037
:100B20001001CDE900492A46636401202B46C047E5
:100B300000B1092630460DF5727DBDE8F087BAF1A7
:100B4000070FF6D13046216CFFF77CFF03A800F0B9
:100B500095FB00BF406C7047F0B5CB6B0B640E1D6E
:100B60000F4604460FCEF9B001AD0FC50FCE0FC52D
:100B70000FCE0FC596E80F004FF0FF3685E80F0047
:100B8000009606E023696A462146984708280546EC
:100B900008D110992046FFF7D1FE0028F2D0092095
:100BA00079B0F0BD6846FFF719FF062DF7D1394639
:100BB0002046FFF749FF00BF30B4DD6BC1608261A2
:100BC00019461D64002230BC5CE700BF70B5C668E2
:100BD00043690B64AEB903690A4604460D460146F3
:100BE00002209847072805D008280FD1294620461B
:100BF000FFF72AFF3046296CFFF724FF281D00F07D
:100C00003DFB0122FFF73EFF2DF086FD2DF084FD18
:100C1000C2681AB1CA6B0A64002233E79CE700BFBE
:100C2000704700BF836813B1014601201847704721
:100C3000042910D8DFE801F005030F0303000120A9
:100C4000704743B90F2A06D800EB82021846536852
:100C5000009A136070470220704700BF10B584B03F
:100C6000002303AC0A4600941946FFF7E1FF0398FE
:100C700004B010BD042910D8DFE801F005030F030C
:100C800003000120704743B90F2A06D800EB820009
:100C9000009A12684260184670470220704700BFF1
:100CA00010B584B0002303AC039200940A461946A1
:100CB000FFF7E0FF04B010BDF0B5D36B1364151D52
:100CC00007460E460FCDADF50F7D17AC0FC40FCD07
:100CD0000FC40FCD0FC495E80F004FF0FF3584E827
:100CE0000F00169510E016A8FFF7DAFF314616A898
:100CF000B84716AA694678B9049B08209847052882
:100D000004460AD0092807D026996846FFF716FE40
:100D10006A460C210028E6D0092416A8FFF75EFEDB
:100D200020460DF50F7DF0BD2DE9F04FCC6C89B05C
:100D30000D4654F8041B0694174600F003081E469F
:100D4000002B61D00B0CDAB209048DF81D300223A0
:100D500004EB820405918DF81C302B6DB8F1020F65
:100D600008BFAC6B13F0010378D1019300F00803C6
:100D70000293D4F800A0BAF1000F00F01B81022EFC
:100D80003ED0B4F800A0B4F802900434AA6C29F064
:100D9000010B0F2138469344FFF760FF83452DD8A0
:100DA0002AF001025A44824294BF002001204FEAF7
:100DB000490303F002030AF0010A43EA0A03012B84
:100DC00030D03BB3022B15D1236823F0004BB8F190
:100DD000000F4DD130B1029A002A6DD0BBF1000F47
:100DE00000F0A080002B00DA04340BF1010B04EBBF
:100DF0008B04BEE7092009B0BDE8F08F0020D6E7DC
:100E0000D4F804900834C1E7090203230591ADF832
:100E10001C30A2E7B8F1000F02D0002840F09D80FE
:100E20000434A6E7B8F1000F2CD1A8B1D4E900230F
:100E3000991C4FEAD272DDD005F1580101330491BB
:100E400000F09E80201DFFF7F5FD04AB014628460B
:100E5000AFF3008000286FD108348AE7384605A92F
:100E600000F00EFB0028C5D1082009B0BDE8F08FC6
:100E70000D213846D5F82090FFF7F0FE814540D08F
:100E80002368AFE70D213846D5F82090FFF7E6FE3E
:100E90008145E1D1AB6A9C42DED12046FFF7FEFCE2
:100EA0000F2102463846FFF7FBFE38462A4600214E
:100EB000FFF7F6FE07209EE7BBF1000F32D005F1E9
:100EC0005803CDF80C8004F10409B046DDF808A001
:100ED0001E4601E0DA4525D048460496FFF7AAFDF4
:100EE00004AB014600222846AFF300800AF1010A54
:100EF00009F104090028EDD046462368DDF80C808E
:100F000070E7AB6A9C42BBD104224FF00009A318E2
:100F1000C5E90AB9C5E90C2323684B4538DB012331
:100F2000019362E738460D21FFF798FE049B286283
:100F3000C5E9093406205EE781460D213846FFF7F2
:100F40008DFEB9F1020F28621FD12B46049A43F897
:100F50002C2F6B62AC6206204DE72046FFF79EFC0B
:100F600004340646AC632846AFF3008000283FF403
:100F700041AF384632460F21FFF792FE07203AE78D
:100F800038460D21FFF76AFE2862049B6B62E1E799
:100F90000BF1010004EB8000FFF780FC0F210246FB
:100FA0003846FFF77DFE38462A464946FFF778FE69
:100FB000072020E705A9384600F062FA00287FF4F0
:100FC00019AF019B002B3FF44FAF0F213846FFF7BD
:100FD00045FE0E2102463846FFF762FE3846034AB8
:100FE0000F21FFF75DFE072005E700BF00000000AE
:100FF000002399E6012397E6022395E62DE9F041C7
:101000000546C4B0042900F2B380DFE801F0955131
:10101000B12B0300002B40F0AB80102A00F2A88017
:101020002B68DC0600F1008122AC2046019200F022
:1010300097F9AE6B019A0023012707FA03F11142D9
:10104000304604D050F8041B44F823100646013300
:10105000042BF2D12046AE6300F078F9002044B0B2
:10106000BDE8F081032B40F08380160C97B2F31992
:10107000102B7DD82B681A0700F1E08022AC2046A7
:1010800000F042F904EBC600A96B4FB10346FA0029
:101090001044CE1A9F5943F8047B8342FAD111447D
:1010A0002046A96300F00EF9002044B0BDE8F081AD
:1010B000012B4FEA12461FFA82F855D0052B57D163
:1010C00006EB0807202F53D80F2E55D94746B8F105
:1010D000000F64D14046A96BB8F1000F00F0BA8050
:1010E00022AC002704EBC604043C01EBC00251F81B
:1010F000040B44F8040F9142F9D17FB102AC102ED9
:10110000304638BF102004EBC000843802EBC70122
:1011100052F8044B40F8044F9142F9D1012B00F0F2
:1011200095800F2EA9636BD917B102A800F0C2F801
:10113000002044B0BDE8F081D3B9AC6B97B2012672
:1011400005F1040C06FA03F13942204604D050F8A8
:10115000041B4CF8231004460133102BF2D112F477
:101160000050E5D1AC6304E006EB0802102A28D950
:10117000022044B0BDE8F081102F7CD9103F2A68CE
:10118000D0070AD5284622F0010242F0020240F8B8
:10119000482B019300F08AF8019B002F5CD02A684D
:1011A000510737D40F2E2FD902AC2046019300F0FF
:1011B00085F8C6F110000028A96B019B48DD22AC20
:1011C00090E70F2ED4D82A68D10708D5284622F0F8
:1011D000030240F8482B019300F060F8019B019353
:1011E00022AC204600F05AF84046A96B019B00282B
:1011F0007FF477AF0431A963204600F04BF897E7FE
:1012000022A800F04FF88FE722A8019300F04EF8D3
:10121000019BC9E7284622F0040240F8D02B019335
:1012200000F04CF8019BBDE723F010032B6005F59F
:10123000E870019200F094F8019AF5E623F00803B3
:101240002B6005F5A87000F05FF817E722ACD1E736
:101250000A4654E7474664E70F2E3FF63BAF22AC01
:101260002046019300F022F84046A96B019B00281C
:101270007FF437AF55E7002781E700BF00F1340165
:1012800091E838009C46A6464CF8045D90E8FF0FB4
:10129000E54600BD90EC210B704700BF80EC210BB0
:1012A000704700BF90EC200B704700BF80EC200B14
:1012B000704700BFD0EC200B704700BFC0EC200B84
:1012C000704700BFF0EC0201F0EC0211F0EC0221DB
:1012D000F0EC0231F0EC0241F0EC0251F0EC026172
:1012E000F0EC0271F0EC0281F0EC0291F0EC02A162
:1012F000F0EC02B1F0EC02C1F0EC02D1F0EC02E152
:10130000F0EC02F1704700BFE0EC0201E0EC0211EA
:10131000E0EC0221E0EC0231E0EC0241E0EC0251B1
:10132000E0EC0261E0EC0271E0EC0281E0EC0291A1
:10133000E0EC02A1E0EC02B1E0EC02C1E0EC02D191
:10134000E0EC02E1E0EC02F1704700BFB0FC01818B
:10135000B0FC0191B0FC01A1B0FC01B1704700BF2D
:10136000A0FC0181A0FC0191A0FC01A1A0FC01B1A5
:10137000704700BFEC4600B52DE900502DE9FF1F76
:101380004FF000032DE90C0001A9FFF7E5FBDDF8A4
:1013900040E012B0704700BFEC4600B52DE90050A8
:1013A0002DE9FF1F4FF000032DE90C0001A9FFF705
:1013B0000DFCDDF840E012B0704700BFEC4600B510
:1013C0002DE900502DE9FF1F4FF000032DE90C001F
:1013D00001A9FFF71DFCDDF840E012B0704700BF27
:1013E000EC4600B52DE900502DE9FF1F4FF000033A
:1013F0002DE90C0001ABFFF7DFFBDDF840E012B098
:10140000704700BFEC4600B52DE900502DE9FF1FE5
:101410004FF000032DE90C0001AAFFF74DFCDDF8A9
:1014200040E012B0704700BF027A82B9437AABB194
:101430004268013B10B4437213680321141D01720A
:101440001A02446002605DF8044B180E704703688E
:10145000013A02721A020260180E7047B0207047FB
:1014600000B585B003AA0023009219460C22FFF7AD
:10147000DFFB039805B05DF804FB00BFF0E700BF99
:101480002DE9F043054685B00E464FF00008304682
:10149000FFF7CAFFB028044600F0B280070620D547
:1014A00000F0F003802B4DD0902B36D0A02B60D0D5
:1014B000B02B74D0C02B00F08B8000F0F803D02B41
:1014C0000BD100F00702013242F400220523012172
:1014D0002846FFF793FD0028D9D0092005B0BDE8C4
:1014E000F0830DF10C09002319468700CDF8009018
:1014F0000D222846FFF79CFBFFB2039BCDF800901E
:10150000043760064CBFDF1BFF18002319460D226D
:1015100028460397FFF7AEFBB9E700F00D030D2B4C
:10152000DBD003AF002300F00F02194600972846D6
:10153000FFF77EFB0023009719460D222846FFF790
:1015400099FBA4E73046FFF76FFF24020443B4F58C
:10155000004FC2D024010023A2B219462846FFF74B
:101560004DFD0028B9D114F4004F18BF4FF0010809
:101570008DE7C24302F007034FF47F621A4101076F
:1015800002F47F624FF0000348BF42F480421946E4
:101590002846FFF733FD00283FF479AF9DE7B128D7
:1015A00033D0B22800F0A080B32841D000F0FC0373
:1015B000B42B92D000F007020132012342F4002242
:1015C00019462846FFF71AFD00283FF460AF84E76C
:1015D000C62851D0C7285AD000F0F803C02B69D0D4
:1015E000C82875D0C9287FF478AF3046FFF71CFFB4
:1015F000020300F00F0002F470220130024365E79D
:10160000B8F1000F27D0002068E73046FFF70CFF45
:1016100000283FF462AF10F0F0037FF45EAF0246A3
:1016200019462846FFF7EAFC00283FF430AF54E79C
:101630003046FFF7F9FE010300F00F0001F47021BE
:10164000421C01230A4328461946FFF7D7FC00280D
:101650003FF41DAF41E703AC43460E2241460094E0
:101660002846FFF7E5FA0094284643460F224146F4
:10167000FFF700FB404631E73046FFF7D5FE010398
:1016800000F00F0001F47021421C0323DAE730461A
:10169000FFF7CAFE00283FF420AF10F0F0037FF4FC
:1016A0001CAF024604212846FFF7A8FC00283FF49F
:1016B000EEAE12E700F00F020132032342F42022C3
:1016C00019462846FFF79AFC00283FF4E0AE04E7ED
:1016D0003046FFF7A9FE00F0F00200F00F031032D1
:1016E000013343EA0232F1E600230DF10C090D2229
:1016F0001946CDF800902846FFF79AFA3046FFF7D2
:1017000093FE02064FF002070CD5039B00F07F000A
:10171000B840034430460393FFF786FE030607F103
:101720000707F2D4039BCDF8009000F07F0403F587
:101730000172BC400023144419460D22284603942C
:10174000FFF798FAA3E600BF10B5C36C84B05A68DF
:1017500003208DF80C00DC798DF80D40120208335F
:10176000084601A901920293FFF78AFE04B010BD5A
:1017700008B5FFF783FE806C08BD00BF08B5FFF712
:101780007DFEC06CC379023300EB830008BD00BF4F
:101790000020704770B5D0E90064042C05460ED8CF
:1017A000301D2BF0C5FEF8B1E9680060031D32461C
:1017B0001846A1B12BF0DAFE0346184670BDA019F9
:1017C00003302BF0B5FE78B1E31C034464422340A0
:1017D000324643F8040CE96818460029EAD12BF098
:1017E000EDFE0346184670BD2CF096FF10B504467A
:1017F000FFF7CEFF38B9A06800B110BD2046FFF753
:10180000C9FFA06010BD2CF087FF00BF10B40468B2
:101810008C4202D200240160C4604468944238BF04
:1018200042601BB102688A4208BFC3605DF8044B86
:10183000704700BF704700BF81F0004102E000BF69
:1018400083F0004330B54FEA41044FEA430594EA80
:10185000050F08BF90EA020F1FBF54EA000C55EABB
:10186000020C7FEA645C7FEA655C00F0E2804FEA8C
:101870005454D4EB5555B8BF6D420CDD2C4480EA6E
:10188000020281EA030382EA000083EA010180EA9E
:10189000020281EA0303362D88BF30BD11F0004FEC
:1018A0004FEA01314FF4801C4CEA113102D0404222
:1018B00061EB410113F0004F4FEA03334CEA13335D
:1018C00002D0524263EB430394EA050F00F0A78075
:1018D000A4F10104D5F1200E0DDB02FA0EFC22FA70
:1018E00005F2801841F1000103FA0EF2801843FA64
:1018F00005F359410EE0A5F120050EF1200E012A55
:1019000003FA0EFC28BF4CF0020C43FA05F3C01892
:1019100051EBE37101F0004507D54FF0000EDCF10B
:10192000000C7EEB00006EEB0101B1F5801F1BD3B4
:10193000B1F5001F0CD349085FEA30004FEA3C0CB8
:1019400004F101044FEA445212F5800F80F09A80AE
:10195000BCF1004F08BF5FEA500C50F1000041EBB2
:10196000045141EA050130BD5FEA4C0C404141EBB6
:10197000010111F4801FA4F10104E9D191F0000FDD
:1019800004BF01460020B1FA81F308BF2033A3F160
:101990000B03B3F120020CDA0C3208DD02F1140C57
:1019A000C2F10C0201FA0CF021FA02F10CE002F192
:1019B0001402D8BFC2F1200C01FA02F120FA0CFC8B
:1019C000DCBF41EA0C019040E41AA2BF01EB0451D4
:1019D000294330BD6FEA04041F3C1CDA0C340EDCD2
:1019E00004F11404C4F1200220FA04F001FA02F315
:1019F00040EA030021FA04F345EA030130BDC4F1D3
:101A00000C04C4F1200220FA02F001FA04F340EAC7
:101A10000300294630BD21FA04F0294630BD94F078
:101A2000000F83F4801306BF81F480110134013D5F
:101A30004EE77FEA645C18BF7FEA655C29D094EAD0
:101A4000050F08BF90EA020F05D054EA000C04BF4E
:101A50001946104630BD91EA030F1EBF0021002039
:101A600030BD5FEA545C05D14000494128BF41F0D8
:101A7000004130BD14F580043CBF01F5801130BD3C
:101A800001F0004545F0FE4141F470014FF00000C7
:101A900030BD7FEA645C1ABF194610467FEA655C78
:101AA0001CBF0B46024650EA013406BF52EA03351A
:101AB00091EA030F41F4002130BD00BF90F0000F08
:101AC00004BF0021704730B54FF4806404F1320444
:101AD0004FF000054FF0000150E700BF90F0000FFD
:101AE00004BF0021704730B54FF4806404F1320424
:101AF00010F0004548BF40424FF000013EE700BFF4
:101B000042004FEAE2014FEA31014FEA02701FBF83
:101B100012F07F4393F07F4F81F06051704732F0B5
:101B20007F4208BF704793F07F4F04BF41F400210C
:101B3000704730B54FF4607401F0004521F000416A
:101B40001CE700BF50EA010208BF704730B54FF0F4
:101B500000050AE050EA010208BF704730B511F0F5
:101B6000004502D5404261EB41014FF4806404F12D
:101B700032045FEA915C3FF4D8AE4FF003025FEAB3
:101B8000DC0C18BF03325FEADC0C18BF033202EB37
:101B9000DC02C2F1200300FA03FC20FA02F001FA91
:101BA00003FE40EA0E0021FA02F11444BDE600BF34
:101BB00070B54FF0FF0C4CF4E06C1CEA11541DBFE3
:101BC0001CEA135594EA0C0F95EA0C0F00F0DEF8AE
:101BD0002C4481EA030621EA4C5123EA4C5350EA93
:101BE000013518BF52EA033541F4801143F48013E4
:101BF00038D0A0FB02CE4FF00005E1FB02E506F075
:101C00000042E0FB03E54FF00006E1FB03569CF0C9
:101C1000000F18BF4EF0010EA4F1FF04B6F5007FCF
:101C200064F5407404D25FEA4E0E6D4146EB060641
:101C300042EAC62141EA55514FEAC52040EA5E50CA
:101C40004FEACE2EB4F1FD0C88BFBCF5E06F1ED874
:101C5000BEF1004F08BF5FEA500E50F1000041EBAB
:101C6000045170BD06F0004646EA010140EA020058
:101C700081EA0301B4EB5C04C2BFD4EB0C0541EA7A
:101C8000045170BD41F480114FF0000E013C00F38F
:101C9000AB8014F1360FDEBF002001F0004170BDB3
:101CA000C4F10004203C35DA0C341BDC04F11404CC
:101CB000C4F1200500FA05F320FA04F001FA05F258
:101CC00040EA020001F0004221F0004110EBD37025
:101CD00021FA04F642EB06015EEA430E08BF20EA51
:101CE000D37070BDC4F10C04C4F1200500FA04F3F4
:101CF00020FA05F001FA04F240EA020001F0004186
:101D000010EBD37041F100015EEA430E08BF20EAF8
:101D1000D37070BDC4F1200500FA05F24EEA020E40
:101D200020FA04F301FA05F243EA020321FA04F06F
:101D300001F0004121FA04F220EA020000EBD37026
:101D40005EEA430E08BF20EAD37070BD94F0000F26
:101D50000FD101F00046400041EB010111F4801F5A
:101D600008BF013CF7D041EA060195F0000F18BF0B
:101D7000704703F00046520043EB030313F4801F47
:101D800008BF013DF7D043EA0603704794EA0C0F01
:101D90000CEA135518BF95EA0C0F0CD050EA410617
:101DA00018BF52EA4306D1D181EA030101F0004194
:101DB0004FF0000070BD50EA410606BF10461946BC
:101DC00052EA430619D094EA0C0F02D150EA0136C8
:101DD00013D195EA0C0F05D152EA03361CBF104609
:101DE00019460AD181EA030101F0004141F0FE41A8
:101DF00041F470014FF0000070BD41F0FE4141F42C
:101E0000780170BD70B54FF0FF0C4CF4E06C1CEA2B
:101E100011541DBF1CEA135594EA0C0F95EA0C0FE0
:101E200000F0A7F8A4EB050481EA030E52EA03359B
:101E30004FEA013100F088804FEA03334FF08055BC
:101E400045EA131343EA12634FEA022245EA1115E9
:101E500045EA10654FEA00260EF000419D4208BF9A
:101E6000964244F1FD0404F5407402D25B084FEA47
:101E70003202B61A65EB03055B084FEA32024FF4F3
:101E800080104FF4002CB6EB020E75EB030E22BF50
:101E9000B61A754640EA0C005B084FEA3202B6EB10
:101EA000020E75EB030E22BFB61A754640EA5C00BF
:101EB0005B084FEA3202B6EB020E75EB030E22BF4F
:101EC000B61A754640EA9C005B084FEA3202B6EB50
:101ED000020E75EB030E22BFB61A754640EADC000F
:101EE00055EA060E18D04FEA051545EA16754FEA71
:101EF00006164FEAC30343EA52734FEAC2025FEA8F
:101F00001C1CC0D111F4801F0BD141EA00014FF01D
:101F100000004FF0004CB6E711F4801F04BF0143EE
:101F20000020B4F1FD0C88BFBCF5E06F3FF6AFAE0A
:101F3000B5EB030C04BFB6EB020C5FEA500C50F19A
:101F4000000041EB045170BD0EF0004E4EEA11311D
:101F500014EB5C04C2BFD4EB0C0541EA045170BD24
:101F600041F480114FF0000E013C90E645EA060E68
:101F70008DE60CEA135594EA0C0F08BF95EA0C0F96
:101F80003FF43BAF94EA0C0F0AD150EA01347FF4DE
:101F900034AF95EA0C0F7FF425AF104619462CE7B5
:101FA00095EA0C0F06D152EA03353FF4FDAE104618
:101FB000194622E750EA410618BF52EA43067FF469
:101FC000C5AE50EA41047FF40DAF52EA43057FF4F9
:101FD000EBAE12E74A0011D212F5001211D20DD564
:101FE0006FF47873B3EB62520ED44FEAC12343F01F
:101FF000004343EA505323FA02F070474FF00000C9
:10200000704750EA013002D14FF0FF3070474FF077
:102010000000704780B500AF02F08EFF00F016F8A8
:1020200000F082F800F0DEF9064800F0F5FA064804
:102030002BF0E4FE07F04AF800F0D6F807F07AF843
:10204000FEE700BF84E7002058F2020880B594B094
:1020500000AF07F120033022002118462BF0AEFA22
:1020600007F10C0300221A605A609A60DA601A6164
:102070000023BB60284B1B6C274A43F0805313643A
:10208000254B1B6C03F08053BB60BB6800237B6057
:10209000224B1B68214A43F4804313601F4B1B688B
:1020A00003F480437B607B6802233B620123FB6275
:1020B00010233B630223BB630023FB6308233B64C1
:1020C000A8237B640223BB640423FB6407F1200381
:1020D000184601F039FF0346002B01D000F020F82C
:1020E0000F23FB6002233B6100237B614FF4A0536D
:1020F000BB614FF48053FB6107F10C0305211846C7
:1021000002F092F90346002B01D000F009F800BF5D
:102110005037BD4680BD00BF00380240007000400F
:1021200080B400AF72B6FEE780B58AB000AF07F1A9
:10213000140300221A605A609A60DA601A61002360
:102140003B61274B1B6B264A43F020031363244B50
:102150001B6B03F020033B613B690023FB60204BBA
:102160001B6B1F4A43F0040313631D4B1B6B03F0EF
:102170000403FB60FB680023BB60194B1B6B184A10
:1021800043F001031363164B1B6B03F00103BB60A9
:10219000BB6800237B60124B1B6B114A43F00203A8
:1021A00013630F4B1B6B03F002037B607B68002201
:1021B0004FF4C0610B4802F09DFC4FF4C0637B619B
:1021C0000123BB610023FB6100233B6207F1140381
:1021D0001946044802F0F4FA00BF2837BD4680BD16
:1021E000003802400014024080B500AF044A0021CC
:1021F000044806F0FDFF0246034B1A6000BF80BD95
:102200003C5B03080D22000880E7002080B5ADF597
:10221000107D00AF3B1D186008F04EFB01224FF40B
:102220000071614802F066FC002387F83F325F4886
:102230002BF0E4FD07F50973184618F0D7FD5C4B49
:10224000C7F824325B4BC7F828325B4BC7F82C32F7
:102250005A4BC7F8303207F50973184618F0DAFD03
:10226000034683F00103DBB2002B04D0AB215448BA
:102270002BF03EFD02E053482BF0C0FD07F5007344
:102280002422002118462BF099F943F69823C7F829
:1022900014321923C7F8183207F500731A460021C3
:1022A000494806F0A5FF4FF4FA7007F047F807F128
:1022B0000C03184606F0BEFA44482BF09FFD444834
:1022C0002BF09CFD41482BF099FD07F10C031846BB
:1022D0002BF00EFD3D482BF091FD3E4805F0F2FB42
:1022E000C7F838023C482BF089FDD7F8380205F0D2
:1022F000E5F90346032B2BD097F83F32002B27D06C
:1023000001224FF48061284802F0F4FB962007F088
:1023100015F800224FF48061234802F0EBFB962071
:1023200007F00CF801224FF400711F4802F0E2FBA5
:10233000962007F003F800224FF400711A4802F0CB
:10234000D9FB962006F0FAFF24482BF057FD2AE02F
:1023500001224FF48061144802F0CCFB4FF47A70F4
:1023600006F0ECFF00224FF480610F4802F0C2FB40
:102370004FF47A7006F0E2FF01224FF400710A4830
:1023800002F0B8FB4FF47A7006F0D8FF00224FF449
:102390000071054802F0AEFB4FF47A7006F0CEFFF4
:1023A0000F482BF02BFD9DE70014024078F2020845
:1023B000C92400080D25000841250008C92500088A
:1023C00088F20208B0F20208617A0108D0F202082D
:1023D000F4F2020818F3020828F302083CF302089A
:1023E00048F3020880B500AF114B124A1A60104B37
:1023F0004FF4E1325A600E4B00229A600C4B0022DF
:10240000DA600B4B00221A61094B0C225A61084B0F
:1024100000229A61064B0022DA61054802F020FE94
:102420000346002B01D0FFF77BFE00BF80BD00BF3D
:1024300084E700200010014080B58AB000AF7860CA
:1024400007F1140300221A605A609A60DA601A6178
:102450007B681B68194A93422CD100233B61184BBF
:102460005B6C174A43F010035364154B5B6C03F02D
:1024700010033B613B690023FB60114B1B6B104A4F
:1024800043F0010313630E4B1B6B03F00103FB606E
:10249000FB684FF4C0637B610223BB610023FB61D7
:1024A00003233B6207237B6207F1140319460548A7
:1024B00002F086F900BF2837BD4680BD00100140FC
:1024C000003802400000024080B582B000AF786062
:1024D00039600C4B1B681A467B6813441A46094B3B
:1024E0001A60094B1B681A467B6813441A46064B50
:1024F0001A60786800F0D6F8034618460837BD46DB
:1025000080BD00BF8C0500209005002080B582B002
:1025100000AF786039607B68002B0BD0786800F0E2
:10252000DBF90246054B1B689B1A044A1360786866
:1025300000F07AF900BF0837BD4680BD9005002045
:1025400080B584B000AFF860B9607A60FB68002B9A
:102550001ED01B4B1B681A46BB6813441A46184B07
:102560001A60184B1B681A46BB6813441A46154B71
:102570001A60F86800F0B0F90246124B1B689B1A0B
:10258000104A1360B968F86800F0C4F9034613E014
:102590000B4B1B681A46BB6813441A46084B1A605B
:1025A000084B1B681A46BB6813441A46054B1A6051
:1025B000B86800F077F8034618461037BD4680BD6E
:1025C0008C0500209005002080B584B000AFF86035
:1025D000B9607A60FB68BA6802FB03F30C4A1268C0
:1025E00013441A460A4B1A60FB68BA6802FB03F3ED
:1025F000084A126813441A46064B1A60B968F8680C
:1026000000F0C2F9034618461037BD4680BD00BF32
:102610008C0500209005002080B483B000AF786066
:10262000044A7B68136000BF18460C37BD465DF84E
:10263000047B70479405002080B584B000AF7860BB
:102640007B68DBB23B73084B1B68002B07D0064B43
:10265000186807F10C010A23012202F04EFD7B6885
:1026600018461037BD4680BD9405002080B586B061
:1026700000AFF860B9607A6000237B6109E0BB6855
:102680005A1CBA601B781846FFF7D6FF7B690133E6
:102690007B617A697B689A42F1DB7B681846183760
:1026A000BD4680BD80B58AB000AF78600023FB6175
:1026B00005F0CEF8574B1B68002B01D100F088F9CC
:1026C000554B1A687B681340002B40F08C807B6868
:1026D000002B1CD008227B6813447B607B6803F0CE
:1026E0000703002B13D07B6823F0070308337B60BC
:1026F0007B6803F00703002B09D04FF0500383F3EE
:102700001188BFF36F8FBFF34F8F7B61FEE77B684C
:10271000002B68D0414B1B687A689A4263D8404BC3
:102720003B623F4B1B687B6204E07B6A3B627B6AD7
:102730001B687B627B6A5B687A689A4203D97B6A12
:102740001B68002BF1D1334B1B687A6A9A424AD03E
:102750003B6A1B6808221344FB617B6A1A683B6A68
:102760001A607B6A5A687B68D21A08235B009A4217
:102770001ED97A6A7B681344BB61BB6903F0070307
:10278000002B09D04FF0500383F31188BFF36F8FF4
:10279000BFF34F8F3B61FEE77B6A5A687B68D21AB2
:1027A000BB695A607B6A7A685A60B86900F072F94E
:1027B0001A4B1A687B6A5B68D31A184A1360174B66
:1027C0001A68184B1B689A4203D2144B1B68154AAF
:1027D00013607B6A5A68104B1B681A437B6A5A6005
:1027E0007B6A00221A6005F041F8FB6903F00703D9
:1027F000002B09D04FF0500383F31188BFF36F8F84
:10280000BFF34F8FFB60FEE7FB6918462837BD46D4
:1028100080BD00BFF0C80020FCC80020F4C8002024
:10282000E8C80020F8C8002080B586B000AF786006
:102830007B687B617B68002B46D008235B427A690A
:1028400013447B617B693B613B695A68204B1B6881
:102850001340002B09D14FF0500383F31188BFF3CD
:102860006F8FBFF34F8FFB60FEE73B691B68002B48
:1028700009D04FF0500383F31188BFF36F8FBFF37C
:102880004F8FBB60FEE73B695A68114B1B681340D2
:10289000002B19D03B691B68002B15D13B695A6886
:1028A0000B4B1B68DB431A403B695A6004F0D0FFB6
:1028B0003B695A68074B1B681344064A1360386922
:1028C00000F0E8F804F0D2FF00BF1837BD4680BD25
:1028D000FCC80020F4C8002080B487B000AF786046
:1028E0007B687B6108235B427A6913447B617B6967
:1028F0003B613B695A68064B1B68DB431340FB6036
:10290000FB6818461C37BD465DF8047B704700BF66
:10291000FCC8002080B588B000AF7860396004F052
:1029200097FF3868FFF7BEFE38617B68FB600823BD
:102930005B42FA681344FB60FB68BB607B68FB6129
:102940003B69BB61BB685A680E4B1B68DB43134095
:102950007B6107E0FA69531CFB61BB69591CB961D3
:1029600012781A707B695A1E7A61002BF2D178684E
:10297000FFF75AFF04F07AFF3B6918462037BD463F
:1029800080BD00BFFCC8002080B586B000AF786075
:10299000396004F05DFF3B687A6802FB03F37B61FA
:1029A0007869FFF77FFEF860FB683B6104E03B69F4
:1029B0005A1C3A6100221A707B695A1E7A61002BF8
:1029C000F5D104F053FFFB6818461837BD4680BDAB
:1029D00080B485B000AF4CF25033BB60274BFB6036
:1029E000FB6803F00703002B0CD0FB680733FB6088
:1029F000FB6823F00703FB60BA68FB68D31A1F4A21
:102A00001344BB60FB687B601D4A7B6813601C4BF2
:102A100000225A607B68BA681344FB600822FB6896
:102A20009B1AFB60FB6823F00703FB60FB68154AF9
:102A30001360144B1B6800225A60124B1B68002263
:102A40001A607B683B603B68FA68D21A3B685A6040
:102A50000C4B1A683B681A603B685B680A4A136053
:102A60003B685B68094A1360094B4FF000421A60EB
:102A700000BF1437BD465DF8047B70479805002001
:102A8000E8C80020F0C80020F8C80020F4C80020E2
:102A9000FCC8002080B485B000AF7860284BFB6094
:102AA00002E0FB681B68FB60FB681B687A689A425F
:102AB000F7D8FB68BB60FB685B68BA6813447A6848
:102AC0009A4208D1FB685A687B685B681A44FB68C5
:102AD0005A60FB687B607B68BB607B685B68BA6838
:102AE0001A44FB681B689A4218D1FB681A68154B98
:102AF0001B689A420DD07B685A68FB681B685B684C
:102B00001A447B685A60FB681B681A687B681A6005
:102B100008E00C4B1A687B681A6003E0FB681A68CF
:102B20007B681A60FA687B689A4202D0FB687A6810
:102B30001A6000BF1437BD465DF8047B704700BFC4
:102B4000E8C80020F0C8002080B400AFFEE780B4E1
:102B500000AFFEE780B400AFFEE780B400AFFEE751
:102B600080B400AFFEE780B400AF00BFBD465DF8A3
:102B7000047B704780B500AF02F030FA05F0C2FC6C
:102B80000346012B01D007F0FFF900BF80BD000014
:102B900080B500AF024800F017FC00BF80BD00BF49
:102BA000D800012080B582B000AF00237B60124BBB
:102BB0005B6C114A43F4804353640F4B5B6C03F42A
:102BC00080437B607B6800233B600B4B1B6C0A4A95
:102BD00043F080531364084B1B6C03F080533B603D
:102BE0003B6800220F216FF0010002F06EF900BF78
:102BF0000837BD4680BD00BF0038024080B588B0B0
:102C000000AF78600023FB610023FB60AA4BBB612F
:102C100000237B6100233B617B68002B01D10123F2
:102C200085E17B6893F84430DBB2002B06D17B68EA
:102C3000002283F84520786807F032FA0023BB6051
:102C40009E4B5B6C9D4A43F4804353649B4B5B6C8F
:102C500003F48043BB60BB68994B5B68984A23F4DC
:102C600000035360964B5A687B681B6A9449134370
:102C70004B607B681B6803F580531A687B681B6890
:102C800042F0010203F580531A6002F0BBF978614B
:102C900011E002F0B7F902467B69D31AB3F5FA7F67
:102CA00009D97B68032283F844207B68002283F8DB
:102CB000452003233BE17B681B6803F580531B68B9
:102CC00003F00103002BE4D17B681B681B69FB61E7
:102CD000FB6923F01C03FB6101F03EFDB861BB6999
:102CE000784A934208D9BB69774A934204D8FB6972
:102CF00043F00803FB6127E0BB69734A934208D99C
:102D0000BB69724A934204D8FB6943F00C03FB6130
:102D10001AE0BB696D4A934203D9BB696C4A93427E
:102D200011D9BB696A4A934208D9BB69694A93427F
:102D300004D8FB6943F00403FB6105E0FB6943F041
:102D40001003FB6100E000BF7B681B68FA691A6131
:102D50004FF400420021786800F019FC0346002B74
:102D60000BD001233B613969786800F0CFFD7B68A7
:102D7000012283F844200123D9E0FF2002F04EF91C
:102D80007B685B68002B00F0A78002F03BF978615C
:102D900007F10C031A460121786800F090FB02F05D
:102DA00031F902467B69D31A41F2883293420FD936
:102DB00001233B613969786800F0A8FD7B68012236
:102DC00083F844207B68002283F845200323AEE08B
:102DD000FB6803F00403002BDAD04FF4805200218B
:102DE000786800F0D4FB0346002B0BD001233B6135
:102DF0003969786800F08AFD7B68012283F84420F5
:102E0000012394E002F0FEF8786107F10C031A4602
:102E10000121786800F053FB02F0F4F802467B6968
:102E2000D31A41F2883293420FD901233B613969A9
:102E3000786800F06BFD7B68012283F844207B6892
:102E4000002283F84520032371E0FB6803F0200390
:102E5000002BDAD007F10C031A461F21786800F026
:102E60002EFB0346002B0BD001233B6139697868A8
:102E700000F04CFD7B68012283F84420012356E0DA
:102E8000FB6803F01003002B04D07B684FF4006252
:102E9000DA6002E07B680022DA60FB6803F004037A
:102EA000002B03D07B6800229A6037E07B684FF4E8
:102EB00080429A6032E000BF0087930300380240EE
:102EC00000380140FF2C3101BF0E1602FF8693032C
:102ED000FFE0F5057FD1F0087B68DB68DB089AB27C
:102EE0007B689B685B089BB213439BB21A46002128
:102EF000786800F04CFB0346002B0BD001233B61AC
:102F00003969786800F002FD7B68012283F844206B
:102F100001230CE040F6FF7002F080F83969786810
:102F200000F0F4FC7B68012283F84420002318465B
:102F30002037BD4680BD00BF80B487B000AFF860C9
:102F4000B9607A603B6000237B61FB6893F8453091
:102F5000012B01D1022352E0FB68012283F84520B6
:102F6000FB68022283F84420FB68BA68DA62002317
:102F70007B6130E07B695B01BA6813443B613B696C
:102F80004FF480121A607B6940F2F45202FB03F3A3
:102F90007A6813441A463B699A60FB68DB69002B28
:102FA00005D13B691B6843F440023B691A603B68EA
:102FB000013B7A699A4208D27B6901335B01BA68A6
:102FC00013441A463B69DA6002E0BA683B69DA608A
:102FD0007B6901337B617A693B689A42CAD3FB689B
:102FE0001B68BA6803F5805310331A60FB6801222E
:102FF00083F84420FB68002283F84520002318460C
:103000001C37BD465DF8047B704780B487B000AFC5
:10301000F860B9607A603B6000237B61FB6893F8DD
:103020004530012B01D1022356E0FB68012283F8D1
:103030004520FB68022283F84420FB68BA689A6244
:1030400000237B6134E07B695B01BA6813443B6118
:103050003B694FF000421A603B6944F2F4525A60F7
:103060007B6940F2F45202FB03F37A6813441A4678
:103070003B699A60FB689B69012B05D13B695B68E2
:1030800023F000423B695A603B68013B7A699A42EF
:1030900008D27B6901335B01BA6813441A463B6965
:1030A000DA6002E0BA683B69DA607B6901337B6110
:1030B0007A693B689A42C6D3FB681B68BA6803F515
:1030C00080530C331A60FB68012283F84420FB68AC
:1030D000002283F84520002318461C37BD465DF8C2
:1030E000047B704780B487B000AF786039600023FC
:1030F0007B610023FB6000233B617B6893F84530D4
:10310000012B01D10223CDE07B68012283F8452009
:103110007B68022283F844203B68002B09D17B683E
:10312000012283F844207B68002283F84520012394
:10313000B8E07B68DB6A1B68002B09DA7B68122227
:1031400083F844207B68002283F845200123A9E00E
:103150003B6840F2F452934215D93B68544AA2FBB3
:1031600003239B0A7B613A68514BA3FB02139B0A22
:1031700040F2F45101FB03F3D31A002B05D07B6915
:1031800001337B6101E001237B617B69012B1CD151
:103190007B68DB6A1A687B68DB6A42F040521A601F
:1031A0007B68DB6A3A68C2F30C025A607B68DB6AB0
:1031B0001A687B68DB6A42F000421A607B68DB6A4F
:1031C000DB681A467B68DA624BE000233B6144E02F
:1031D0007B68DB6A1A687B68DB6A22F040521A60FF
:1031E0003B69002B07D17B68DB6A1A687B68DB6A66
:1031F00042F080521A607B68DB6A40F2F4525A60F7
:103200007B69013B3A699A4216D17B68DB6A1A688E
:103210007B68DB6A42F000521A607B69254A02FB38
:1032200003F23B68134403F2F453FB607B68DB6AF0
:10323000FA68C2F30C025A607B68DB6A1A687B6822
:10324000DB6A42F000421A607B68DB6ADB681A4680
:103250007B68DA623B6901333B613A697B699A4278
:10326000B6D37B681B6803F5805314331B6803F0E7
:103270000403002B0DD07B681B6803F580531433C7
:1032800004221A607B681B6803F580530433002214
:103290001A607B68012283F844207B68002283F84F
:1032A0004520002318461C37BD465DF8047B704757
:1032B0000BB002AC0CFAFFFF80B485B000AF7860B1
:1032C0000023FB607B6893F84530012B01D102237A
:1032D00074E07B68012283F845207B68022283F832
:1032E00044205AE0FB680133FB607B689B6A1B68E3
:1032F00003F44073B3F5007F0DD17B689A6A7B6855
:103300001A637B6801229A637B689B6ADB681A46B2
:103310007B689A6241E07B689B6A1B6803F4407398
:10332000002B0BD17B689B6B5A1C7B689A637B6874
:103330009B6ADB681A467B689A622EE07B689A6A11
:103340007B685A637B689B6B5A1C7B689A637B68BB
:103350009B6B012B03D17B689A6A7B681A637B683D
:103360009B6A1B681B0CC3F30D031A1F7B68DA638F
:103370007B681B6B9A687B681A647B689B6ADB6856
:103380001A467B689A627B68012283F844207B6836
:10339000002283F84520002310E07B689B6A1B68AD
:1033A000002B02DBFB68032B9CD97B68012283F88E
:1033B00044207B68002283F84520012318461437F7
:1033C000BD465DF8047B704780B582B000AF786081
:1033D0007B681B6803F5805314331B6803F04003BC
:1033E000402B12D1786806F009FF7B681B6803F553
:1033F0008053143340221A607B68012283F84420F2
:103400007B68002283F845201BE07B681B6803F57E
:10341000805314331B6803F00103012B11D178682A
:1034200000F039F87B681B6803F5805314330122E0
:103430001A607B68012283F844207B68002283F8AD
:1034400045207B681B6803F5805314334FF48032AA
:103450001A607B681B6803F5805314331B6803F400
:103460000043B3F5004F12D1786800F01EF87B6876
:103470001B6803F5805314334FF400421A607B68D5
:10348000012283F844207B68002283F8452000BF96
:103490000837BD4680BD80B483B000AF786000BF00
:1034A0000C37BD465DF8047B704780B483B000AF35
:1034B000786000BF0C37BD465DF8047B704780B56F
:1034C00086B000AFF8600B467A607B8100237B6199
:1034D00000233B61FB6893F84430DBB2822B01D1BF
:1034E000022350E0FB68822283F84420FB681B68BB
:1034F0001B697B617B6903F01C037B61FB681B8A92
:10350000DB029BB27A6913437B617B899B0103F4E5
:10351000F8637A6913437B617B6923F002037B6163
:103520007B6943F001037B61FB681B687A691A6160
:1035300001F068FD386115E001F064FD02463B6969
:10354000D31AB3F5803F09D3FB68012283F84420E6
:10355000FB68002283F84520032314E0FB681B6806
:103560001B697B617B6903F00103002BE4D1FB68DD
:103570001B685B699BB21A467B681A60FB68012274
:1035800083F84420002318461837BD4680BD80B517
:1035900086B000AFF8600B467A607B8100237B61C8
:1035A00000233B61FB6893F84430DBB2422B01D12E
:1035B00002234EE0FB68422283F84420FB681B682C
:1035C0001B697B617B6903F01C037B61FB681B8AC1
:1035D000DB029BB27A6913437B617B899B0103F415
:1035E000F8637A6913437B617B6943F002037B6173
:1035F0007B6943F001037B617B689AB2FB681B68BF
:103600005A61FB681B687A691A6101F0FBFC38613A
:1036100015E001F0F7FC02463B69D31AB3F5803F91
:1036200009D3FB68012283F84420FB68002283F859
:10363000452003230DE0FB681B681B697B617B69E8
:1036400003F00103002BE4D1FB68012283F844203E
:10365000002318461837BD4680BD80B582B000AF44
:1036600078607B6893F84530012B01D102231FE07D
:103670007B68012283F845207B68022283F844207E
:10368000786800F045FB786800F07CFB786800F013
:1036900013FC786800F0B0FB786800F0DDFB7B6815
:1036A000012283F844207B68002283F84520002310
:1036B00018460837BD4680BD80B582B000AF78603F
:1036C0007B6893F84530012B01D102231FE07B6812
:1036D000012283F845207B68022283F84420786821
:1036E00000F0A2FB786800F0CFFB786800F067FB81
:1036F000786800F0E1FB786800F027FB7B68012226
:1037000083F844207B68002283F845200023184674
:103710000837BD4680BD000080B584B000AF78603A
:1037200039600023FB607B6893F84530012B01D1A1
:103730000223E4E07B68012283F845207B680222B3
:1037400083F844203B68002B00F0B1807B681B6845
:103750001B68FB60FA686C4B1340FB603B681A689F
:103760003B685B681A433B689B681A433B68DB68AD
:103770001A437B689B681A433B681B691A433B6882
:103780005B691A437B68DB681A433B689B691A4391
:103790003B68DB691A433B681B6A1A433B685B6AF8
:1037A0001A433B689B6A1343FA681343FB607B68C8
:1037B0001B68FA681A607B681B681B68FB60012045
:1037C00001F02CFC7B681B68FA681A603B68DA6AB7
:1037D0003B681B6B1A433B685B6B1A433B689B6BF4
:1037E0001A433B68DB6B1A433B681B6C1A433B680C
:1037F0005B6C42EA03013B689A6C7B681B680A4376
:103800005A607B681B685B68FB60012001F006FC66
:103810007B681B68FA685A607B681B683A68D26CE0
:103820009A607B681B683A68126DDA607B681B6877
:103830009B69FB60FA684FF641731340FB603B687D
:103840005B6D1A043B689B6D1A433B68DB6D1A4342
:103850003B681B6E1A433B685B6E1A433B689B6E6A
:103860001343FA681343FB607B681B68FA689A612C
:103870007B681B689B69FB60012001F0CFFB7B68C4
:103880001B68FA689A613B68D96E3B681A6F7B685F
:103890001B680A43DA617B681B68DB69FB600120F7
:1038A00001F0BCFB7B681B68FA68DA611EE07B688C
:1038B0001B681B68FB60FB6823F49043FB607B681C
:1038C0009A687B68DB681343FA681343FB607B6884
:1038D0001B68FA681A607B681B681B68FB60012024
:1038E00001F09CFB7B681B68FA681A607B68012208
:1038F00083F844207B68002283F845200023184683
:103900001037BD4680BD00BF0F8120FF80B5B0B02D
:1039100000AF786039600023C7F8BC303B68002BEB
:1039200007D07B684FF40062DA607B684FF4804216
:103930009A600023BB640023FB6400233B650023E3
:103940007B650023BB650023FB657B68DB69002B7F
:1039500003D14FF480633B6601E000233B664FF4E4
:1039600000737B660023BB660023FB6600233B6776
:1039700000237B670023BB674023FB670023C7F856
:1039800080300023C7F884300023C7F88830002334
:10399000C7F88C300023C7F890300023C7F8943064
:1039A0000023C7F898300023C7F89C308023C7F85D
:1039B000A0300023C7F8A4300023C7F8A8300023A4
:1039C000C7F8AC300023C7F8B0300023C7F8B430D4
:1039D0000023C7F8B8307B681B681B68C7F8BC3089
:1039E000D7F8BC20AC4B1340C7F8BC30BA6CFB6CAA
:1039F0001A433B6D1A437B6D1A437B689B681A43DD
:103A0000BB6D1A43FB6D1A437B68DB681A433B6E40
:103A10001A437B6E1A43BB6E1A43FB6E1A433B6F0D
:103A20001343D7F8BC201343C7F8BC307B681B682E
:103A3000D7F8BC201A607B681B681B68C7F8BC30CD
:103A4000012001F0EBFA7B681B68D7F8BC201A60F4
:103A50007A6FBB6F1A43FB6F1A43D7F880301A4353
:103A6000D7F884301A43D7F888301A43D7F88C3007
:103A700042EA0301D7F890207B681B680A435A602A
:103A80007B681B685B68C7F8BC30012001F0C6FA90
:103A90007B681B68D7F8BC205A607B681B68D7F826
:103AA00094209A607B681B68D7F89820DA607B685E
:103AB0001B689B69C7F8BC30D7F8BC204FF6417330
:103AC0001340C7F8BC30D7F89C301A04D7F8A030A0
:103AD0001A43D7F8A4301A43D7F8A8301A43D7F8B6
:103AE000AC301A43D7F8B0301343D7F8BC20134397
:103AF000C7F8BC307B681B68D7F8BC209A617B682C
:103B00001B689B69C7F8BC30012001F087FA7B680D
:103B10001B68D7F8BC209A61D7F8B410D7F8B82042
:103B20007B681B680A43DA617B681B68DB69C7F83E
:103B3000BC30012001F072FA7B681B68D7F8BC200A
:103B4000DA610023BB604FF00073FB6000233B6130
:103B50004FF400137B610023BB610023FB61002352
:103B60003B6200237B620423BB624FF00073FB6265
:103B70004FF480333B634FF480037B634FF4005377
:103B8000BB638023FB6300233B6400237B647B686F
:103B90001B6803F5805318331B68C7F8BC30D7F88F
:103BA000BC203E4B1340C7F8BC30BA68FB681A43D0
:103BB0003B691A437B691A43BB691A43FB691A4381
:103BC0003B6A1A437B6A1A43BB6A1343D7F8BC208B
:103BD0001343C7F8BC307B681B6803F58053183368
:103BE000D7F8BC201A607B681B6803F58053183334
:103BF0001B68C7F8BC30012001F010FA7B681B6815
:103C000003F580531833D7F8BC201A60FA6A3B6B6F
:103C10001A437B6B1A43BB6B1A43FB6B1A433B6C17
:103C20009B001A437B6C1A437B681B6842F40002BA
:103C300003F580531A607B681B6803F580531B688B
:103C4000C7F8BC30012001F0E9F97B681B6803F577
:103C50008053D7F8BC201A607B689B69012B0FD179
:103C60007B681B6803F580531C331A687B681B68EC
:103C700042F4803242F0400203F580531C331A6054
:103C80007B685B691A460021786800F009F800BF7C
:103C9000C037BD4680BD00BF0F8120FF233FDEF847
:103CA00080B487B000AFF860B9607A607B68053394
:103CB0001B781B027A680432127813437B61BA685E
:103CC000114B13441A467B6913607B6803331B78DE
:103CD0001A067B6802331B781B041A437B68013386
:103CE0001B781B0213437A68127813437B61BA680E
:103CF000064B13441A467B69136000BF1C37BD4650
:103D00005DF8047B704700BF408002404480024061
:103D100080B584B000AF78600023FB607B681B68CF
:103D20001A687B681B6842F008021A607B681B688F
:103D30001B68FB60012000F0E9F87B681B68FA68EB
:103D40001A6000BF1037BD4680BD80B584B000AF9B
:103D500078600023FB607B681B681A687B681B68BF
:103D600022F008021A607B681B681B68FB60012058
:103D700000F0CCF87B681B68FA681A6000BF103747
:103D8000BD4680BD80B584B000AF78600023FB6085
:103D90007B681B681A687B681B6842F004021A6023
:103DA0007B681B681B68FB60012000F0AFF87B6834
:103DB0001B68FA681A6000BF1037BD4680BD80B529
:103DC00084B000AF78600023FB607B681B681A68D2
:103DD0007B681B6822F004021A607B681B681B6802
:103DE000FB60012000F092F87B681B68FA681A609B
:103DF00000BF1037BD4680BD80B483B000AF78608F
:103E00007B681B6803F5805318331A687B681B684E
:103E100042F4005203F5805318331A6000BF0C3788
:103E2000BD465DF8047B704780B483B000AF786016
:103E30007B681B6803F5805318331A687B681B681E
:103E400022F4005203F5805318331A6000BF0C3778
:103E5000BD465DF8047B704780B483B000AF7860E6
:103E60007B681B6803F5805318331A687B681B68EE
:103E700042F0020203F5805318331A6000BF0C377A
:103E8000BD465DF8047B704780B483B000AF7860B6
:103E90007B681B6803F5805318331A687B681B68BE
:103EA00022F0020203F5805318331A6000BF0C376A
:103EB000BD465DF8047B704780B584B000AF786084
:103EC0000023FB607B681B6803F5805318331A6876
:103ED0007B681B6842F4801203F5805318331A6024
:103EE0007B681B6803F5805318331B68FB60012057
:103EF00000F00CF87B681B68FA6803F580531833F0
:103F00001A6000BF1037BD4680BD000080B485B088
:103F100000AF78600A4B1B680A4AA2FB03235B0AC6
:103F20007A6802FB03F3FB6000BFFB685A1EFA606D
:103F3000002BF9D100BF1437BD465DF8047B7047F4
:103F400008000020D34D621080B586B000AF7860C5
:103F50007B68002B01D101235BE27B681B6803F0C7
:103F60000103002B75D0A34B9B6803F00C03042BBB
:103F70000CD0A04B9B6803F00C03082B12D19D4B77
:103F80005B6803F48003B3F5800F0BD1994B1B687A
:103F900003F40033002B5BD07B685B68002B57D1A8
:103FA000012336E27B685B68B3F5803F06D1914B15
:103FB0001B68904A43F4803313601DE07B685B68A4
:103FC000B3F5A02F0CD18B4B1B688A4A43F4802396
:103FD0001360884B1B68874A43F4803313600BE0FF
:103FE000844B1B68834A23F480331360814B1B6826
:103FF000804A23F4802313607B685B68002B13D016
:1040000001F000F8386108E000F0FCFF02463B696F
:10401000D31A642B01D90323FBE1764B1B6803F40D
:104020000033002BF0D014E000F0ECFF386108E022
:1040300000F0E8FF02463B69D31A642B01D9032341
:10404000E7E16C4B1B6803F40033002BF0D100E078
:1040500000BF7B681B6803F00203002B63D0654B35
:104060009B6803F00C03002B0BD0624B9B6803F0A2
:104070000C03082B1CD15F4B5B6803F48003002BFF
:1040800016D15C4B1B6803F00203002B05D07B6844
:10409000DB68012B01D00123BBE1564B1B6823F0E9
:1040A000F8027B681B69DB00524913430B603AE05E
:1040B0007B68DB68002B20D04F4B01221A6000F098
:1040C000A1FF386108E000F09DFF02463B69D31A6A
:1040D000022B01D903239CE1464B1B6803F002032A
:1040E000002BF0D0434B1B6823F0F8027B681B6960
:1040F000DB00404913430B6015E03F4B00221A6080
:1041000000F080FF386108E000F07CFF02463B6968
:10411000D31A022B01D903237BE1364B1B6803F032
:104120000203002BF0D17B681B6803F00803002B0F
:1041300030D07B685B69002B16D0304B01221A60AF
:1041400000F060FF386108E000F05CFF02463B6968
:10415000D31A022B01D903235BE1264B5B6F03F0DB
:104160000203002BF0D015E0244B00221A6000F06F
:1041700049FF386108E000F045FF02463B69D31A69
:10418000022B01D9032344E11A4B5B6F03F00203B6
:10419000002BF0D17B681B6803F00403002B00F0B8
:1041A000A0800023FB75134B1B6C03F08053002B86
:1041B0000FD10023BB600F4B1B6C0E4A43F08053A2
:1041C00013640C4B1B6C03F08053BB60BB68012372
:1041D000FB750B4B1B6803F48073002B21D1084B3C
:1041E0001B68074A43F48073136000F00BFF3861CB
:1041F00011E000BF0038024000004742800E4742F5
:104200000070004000F0FEFE02463B69D31A022B0C
:1042100001D90323FDE0814B1B6803F48073002B5D
:10422000F0D07B689B68012B06D17D4B1B6F7C4ACD
:1042300043F0010313671CE07B689B68052B0CD1DE
:10424000774B1B6F764A43F004031367744B1B6F65
:10425000734A43F0010313670BE0714B1B6F704A05
:1042600023F0010313676E4B1B6F6D4A23F00403A9
:1042700013677B689B68002B15D000F0C3FE386184
:104280000AE000F0BFFE02463B69D31A41F28832D1
:10429000934201D90323BCE0614B1B6F03F002037F
:1042A000002BEED014E000F0ADFE38610AE000F023
:1042B000A9FE02463B69D31A41F28832934201D9E2
:1042C0000323A6E0564B1B6F03F00203002BEED135
:1042D000FB7D012B05D1524B1B6C514A23F08053BF
:1042E00013647B689B69002B00F092804C4B9B68A9
:1042F00003F00C03082B5CD07B689B69022B41D137
:10430000484B00221A6000F07DFE386108E000F0A2
:1043100079FE02463B69D31A022B01D9032378E0C8
:104320003F4B1B6803F00073002BF0D17B68DA6908
:104330007B681B6A1A437B685B6A9B011A437B6834
:104340009B6A5B08013B1B041A437B68DB6A1B0604
:10435000334913434B60334B01221A6000F052FE85
:10436000386108E000F04EFE02463B69D31A022B8A
:1043700001D903234DE02A4B1B6803F00073002B87
:10438000F0D045E0274B00221A6000F03BFE386178
:1043900008E000F037FE02463B69D31A022B01D930
:1043A000032336E01E4B1B6803F00073002BF0D193
:1043B0002EE07B689B69012B01D1012329E0184B7A
:1043C0005B68FB60FB6803F480027B68DB699A42F0
:1043D0001CD1FB6803F03F027B681B6A9A4215D12F
:1043E000FA6847F6C07313407A68526A93420DD157
:1043F000FB6803F440327B689B6A9A4206D1FB68F3
:1044000003F070627B68DB6A9A4201D0012300E00E
:10441000002318461837BD4680BD00BF007000401D
:10442000003802406000474280B584B000AF786039
:1044300039607B68002B01D10123CCE0684B1B68FD
:1044400003F00F033A689A420CD9654B3A68D2B22E
:104450001A70634B1B6803F00F033A689A4201D04D
:104460000123B8E07B681B6803F00203002B20D017
:104470007B681B6803F00403002B05D0594B9B6835
:10448000584A43F4E05393607B681B6803F00803C9
:10449000002B05D0534B9B68524A43F46043936012
:1044A000504B9B6823F0F0027B689B684D49134397
:1044B0008B607B681B6803F00103002B44D07B6892
:1044C0005B68012B07D1474B1B6803F40033002BBB
:1044D00019D101237FE07B685B68022B03D07B68E6
:1044E0005B68032B07D13F4B1B6803F00073002B65
:1044F00009D101236FE03B4B1B6803F00203002B43
:1045000001D1012367E0374B9B6823F003027B68EE
:104510005B68344913438B6000F074FDF8600AE077
:1045200000F070FD0246FB68D31A41F288329342D4
:1045300001D903234FE02B4B9B6803F00C027B68EF
:104540005B689B009A42EBD1254B1B6803F00F037D
:104550003A689A420CD2224B3A68D2B21A70204B77
:104560001B6803F00F033A689A4201D0012332E03E
:104570007B681B6803F00403002B08D0194B9B6871
:1045800023F4E0527B68DB68164913438B607B6839
:104590001B6803F00803002B09D0124B9B6823F41F
:1045A00060427B681B69DB000E4913438B6000F09F
:1045B00021F801460B4B9B681B0903F00F030A4AC5
:1045C000D35C21FA03F3094A1360094B1B681846B0
:1045D00000F0D4FC002318461037BD4680BD00BF54
:1045E000003C024000380240605B030808000020E5
:1045F00000000020F0B585B000AF00227A600022F4
:10460000FA6000223A600022BA60504A926802F0D2
:104610000C02042A07D0082A08D0002A40F08E8015
:104620004B4BBB608DE04B4BBB608AE0474A526806
:1046300002F03F027A60454A526802F48002002A82
:1046400024D0424A5268920911464FF0000240F2CB
:10465000FF154FF0000601EA050302EA06043D4A91
:1046600002FB04F1002202FB03F20A443949A3FBD6
:104670000101531819467B684FF000041A4623467F
:10468000FBF76CFF03460C46FB6049E02F4B5B6871
:104690009B094FF0000440F2FF114FF0000203EAC3
:1046A000010504EA0206294632464FF000034FF0A6
:1046B0000004540144EAD1644B0119462246491BC7
:1046C00062EB06024FF000034FF00004940144EA4D
:1046D00091648B015B1A64EB02044FF000014FF010
:1046E0000002E20042EA5372D9000B4614465B19FD
:1046F00046EB04044FF000014FF00002A20242EA30
:10470000935299020B461446184621467B684FF097
:1047100000041A462346FBF721FF03460C46FB60C4
:104720000A4B5B681B0C03F0030301335B003B6027
:10473000FA683B68B2FBF3F3BB6002E0044BBB607A
:1047400000BFBB6818461437BD46F0BD00380240B4
:104750000024F40040787D0180B400AF034B1B6857
:104760001846BD465DF8047B704700BF0800002076
:1047700080B500AFFFF7F0FF0146054B9B689B0A31
:1047800003F00703034AD35C21FA03F3184680BD04
:1047900000380240705B030880B500AFFFF7DCFF14
:1047A0000146054B9B685B0B03F00703034AD35C90
:1047B00021FA03F3184680BD00380240705B0308FD
:1047C00080B489B000AF7860396000237B6100233A
:1047D0003B610023BB610023FB616BE10122FB69AC
:1047E00002FA03F37B613B681B687A6913403B6103
:1047F0003A697B699A4240F05A813B685B68012BB9
:104800000BD03B685B68022B07D03B685B68112BC1
:1048100003D03B685B68122B30D17B689B68BB611F
:10482000FB695B00032202FA03F3DB43BA6913401E
:10483000BB613B68DA68FB695B0002FA03F3BA69A3
:104840001343BB617B68BA699A607B685B68BB6134
:104850000122FB6902FA03F3DB43BA691340BB612F
:104860003B685B681B0903F00102FB6902FA03F372
:10487000BA691343BB617B68BA695A607B68DB68BD
:10488000BB61FB695B00032202FA03F3DB43BA69F5
:104890001340BB613B689A68FB695B0002FA03F353
:1048A000BA691343BB617B68BA69DA603B685B68CD
:1048B000022B03D03B685B68122B23D1FB69DA081B
:1048C0007B68083253F82230BB61FB6903F00703B1
:1048D0009B000F2202FA03F3DB43BA691340BB616A
:1048E0003B681A69FB6903F007039B0002FA03F3B4
:1048F000BA691343BB61FB69DA087B680832B9699E
:1049000043F822107B681B68BB61FB695B000322D4
:1049100002FA03F3DB43BA691340BB613B685B688F
:1049200003F00302FB695B0002FA03F3BA69134365
:10493000BB617B68BA691A603B685B6803F08053AF
:10494000002B00F0B4800023FB605F4B5B6C5E4A81
:1049500043F4804353645C4B5B6C03F48043FB6023
:10496000FB685A4AFB699B08023352F82330BB614B
:10497000FB6903F003039B000F2202FA03F3DB43FE
:10498000BA691340BB617B68514A93422BD07B6864
:10499000504A934225D07B684F4A93421FD07B6890
:1049A0004E4A934219D07B684D4A934213D07B689C
:1049B0004C4A93420DD07B684B4A934207D07B68A8
:1049C0004A4A934201D107230EE008230CE0062354
:1049D0000AE0052308E0042306E0032304E00223A1
:1049E00002E0012300E00023FA6902F003029200D2
:1049F0009340BA691343BB613449FB699B08023396
:104A0000BA6941F823203A4B1B68BB613B69DB4321
:104A1000BA691340BB613B685B6803F48033002BC9
:104A200003D0BA693B691343BB61314ABB69136068
:104A30002F4B5B68BB613B69DB43BA691340BB61C9
:104A40003B685B6803F40033002B03D0BA693B6911
:104A50001343BB61264ABB695360254B9B68BB610E
:104A60003B69DB43BA691340BB613B685B6803F495
:104A70008013002B03D0BA693B691343BB611C4A06
:104A8000BB6993601A4BDB68BB613B69DB43BA6966
:104A90001340BB613B685B6803F40013002B03D039
:104AA000BA693B691343BB61114ABB69D360FB69B7
:104AB0000133FB61FB690F2B7FF690AE00BF2437FB
:104AC000BD465DF8047B7047003802400038014065
:104AD000000002400004024000080240000C0240B6
:104AE000001002400014024000180240001C024066
:104AF000003C014080B483B000AF78600B467B80FF
:104B000013467B707B78002B03D07A887B689A6190
:104B100003E07B881A047B689A6100BF0C37BD46AE
:104B20005DF8047B704780B586B000AFF860B9606F
:104B30007A603B600023FB75FB689B6D3B61FB6803
:104B400093F83430012B01D1022340E0FB680122AD
:104B500083F83420FB6893F83530DBB2012B2FD17A
:104B6000FB68022283F83520FB6800225A653B6807
:104B70007A68B968F86800F09EF8FB68DB6D3F2240
:104B80009A403B699A60FB681B681A68FB681B685F
:104B900042F016021A60FB681B6C002B07D0FB6802
:104BA0001B681A68FB681B6842F008021A60FB6801
:104BB0001B681A68FB681B6842F001021A6005E076
:104BC000FB68002283F834200223FB75FB7D184626
:104BD0001837BD4680BD80B584B000AF78607B6873
:104BE0009B6DFB6000F00EFAB8607B6893F835307F
:104BF000DBB2022B08D07B6880225A657B680022DA
:104C000083F83420012352E07B681B681A687B68B4
:104C10001B6822F016021A607B681B685A697B6861
:104C20001B6822F080025A617B681B6C002B03D149
:104C30007B689B6C002B07D07B681B681A687B68BD
:104C40001B6822F008021A607B681B681A687B6880
:104C50001B6822F001021A6013E000F0D3F902464B
:104C6000BB68D31A052B0CD97B6820225A657B6858
:104C7000002283F834207B68032283F83520032345
:104C800015E07B681B681B6803F00103002BE4D16F
:104C90007B68DB6D3F229A40FB689A607B6800224C
:104CA00083F834207B68012283F8352000231846DE
:104CB0001037BD4680BD80B485B000AFF860B960E4
:104CC0007A603B60FB681B681A68FB681B6822F40B
:104CD00080221A60FB681B683A685A60FB689B6810
:104CE000402B08D1FB681B687A689A60FB681B68D8
:104CF000BA68DA6007E0FB681B68BA689A60FB680C
:104D00001B687A68DA6000BF1437BD465DF8047B23
:104D10007047000080B485B000AF78607B6803F016
:104D20000703FB600C4BDB68BB60BA684FF6FF0300
:104D30001340BB60FB681A02BB68134343F0BF63B8
:104D400043F40033BB60044ABB68D36000BF143730
:104D5000BD465DF8047B704700ED00E080B400AF15
:104D6000044BDB681B0A03F007031846BD465DF8D9
:104D7000047B704700ED00E080B483B000AF0346D1
:104D8000FB7197F90730002B0BDBFB7903F01F0257
:104D9000074997F907305B09012000FA02F241F850
:104DA000232000BF0C37BD465DF8047B704700BF71
:104DB00000E100E080B483B000AF03463960FB71CE
:104DC00097F90730002B0ADB3B68DAB20C4997F9F8
:104DD00007301201D2B20B4483F800230AE03B688B
:104DE000DAB20849FB7903F00F03043B1201D2B297
:104DF0000B441A7600BF0C37BD465DF8047B704744
:104E000000E100E000ED00E080B489B000AFF860A0
:104E1000B9607A60FB6803F00703FB61FB69C3F1CB
:104E20000703042B28BF0423BB61FB690433062B53
:104E300002D9FB69033B00E000237B614FF0FF32A6
:104E4000BB6902FA03F3DA43BB681A407B699A40F4
:104E50004FF0FF317B6901FA03F3D9437B680B40C4
:104E6000134318462437BD465DF8047B70470000A5
:104E700080B582B000AF78607B68013BB3F1807F82
:104E800001D301230FE00A4A7B68013B53600F21E5
:104E90004FF0FF30FFF78EFF054B00229A60044B66
:104EA00007221A60002318460837BD4680BD00BFA0
:104EB00010E000E080B582B000AF78607868FFF75E
:104EC00029FF00BF0837BD4680BD80B586B000AF62
:104ED0000346B9607A60FB7300237B61FFF73EFFF6
:104EE00078617A68B9687869FFF78EFF024697F9AA
:104EF0000F3011461846FFF75DFF00BF1837BD465B
:104F000080BD80B582B000AF0346FB7197F90730D2
:104F10001846FFF731FF00BF0837BD4680BD80B59A
:104F200082B000AF78607868FFF7A2FF03461846AA
:104F30000837BD4680BD000080B500AF0E4B1B6832
:104F40000D4A43F4007313600B4B1B680A4A43F489
:104F500080631360084B1B68074A43F48073136037
:104F60000320FFF7A7FF0F2000F008F8FDF71AFE57
:104F70000023184680BD00BF003C024080B582B0CF
:104F800000AF7860124B1A68124B1B7819464FF429
:104F90007A73B3FBF1F3B2FBF3F31846FFF7BFFFED
:104FA0000346002B01D001230EE07B680F2B0AD8AB
:104FB000002279684FF0FF30FFF787FF064A7B68D1
:104FC0001360002300E0012318460837BD4680BD6A
:104FD00008000020040000200000002080B400AF82
:104FE000064B1B781A46064B1B681344044A136091
:104FF00000BFBD465DF8047B704700BF0400002081
:10500000C4E7002080B400AF034B1B681846BD46C0
:105010005DF8047B704700BFC4E7002080B584B012
:1050200000AF7860FFF7EEFFB8607B68FB60FB685D
:10503000B3F1FF3F05D0094B1B781A46FB681344B8
:10504000FB6000BFFFF7DEFF0246BB68D31AFA68B9
:105050009A42F7D800BF1037BD4680BD040000203B
:1050600080B582B000AF78607B68002B01D101234E
:105070003FE07B6893F83930DBB2002B06D17B68C8
:10508000002283F838207868FDF7D6F97B6824225F
:1050900083F839207B681B68DA687B681B6822F418
:1050A0000052DA60786800F07BFB7B681B681A6945
:1050B0007B681B6822F490421A617B681B685A69FE
:1050C0007B681B6822F02A025A617B681B68DA68D9
:1050D0007B681B6842F40052DA607B680022DA6366
:1050E0007B68202283F839207B68202283F83A20CD
:1050F000002318460837BD4680BD80B588B002AF92
:10510000F860B9603B601346FB8000237B61FB685D
:1051100093F83930DBB2202B40F08380BB68002B42
:1051200002D0FB88002B01D101237BE0FB6893F8C0
:105130003830012B01D1022374E0FB68012283F88F
:105140003820FB680022DA63FB68212283F83920CB
:10515000FFF758FF7861FB68FA889A84FB68FA8841
:10516000DA84FB68002283F8382042E0FB68DB8C9D
:105170009BB2013B9AB2FB68DA84FB689B68B3F58B
:10518000805F22D13B6800937B6900228021F86810
:1051900000F088FA0346002B01D0032342E0BB68ED
:1051A0003B613B691B881A46FB681B68C2F3080217
:1051B0005A60FB681B69002B03D1BB680233BB60DC
:1051C00017E0BB680133BB6013E03B6800937B6969
:1051D00000228021F86800F065FA0346002B01D018
:1051E00003231FE0BB685A1CBA601A78FB681B686F
:1051F0005A60FB68DB8C9BB2002BB7D13B680093F5
:105200007B6900224021F86800F04CFA0346002B2D
:1052100001D0032306E0FB68202283F83920002315
:1052200000E0022318461837BD4680BD80B586B021
:1052300000AFF860B9601346FB80FB6893F8393023
:10524000DBB2202B53D1BB68002B02D0FB88002B94
:1052500001D101234CE0FB6893F83830012B01D1D8
:10526000022345E0FB68012283F83820BA68FB6816
:105270001A62FB68FA889A84FB68FA88DA84FB6809
:105280000022DA63FB68212283F83920FB681B6B5C
:10529000194ADA63FB681B6B184A1A64FB681B6BBC
:1052A000174ADA64FB681B6B00221A6507F10803D2
:1052B0007B61FB68186B7B691968FB681B680433AA
:1052C0001A46FB88FFF72FFCFB681B686FF0400253
:1052D0001A60FB68002283F83820FB681B685A6953
:1052E000FB681B6842F080025A61002300E0022341
:1052F00018461837BD4680BD1F5500087155000877
:105300001156000880B586B000AFF860B96013464A
:10531000FB80FB6893F83A30DBB2202B66D1BB6888
:10532000002B02D0FB88002B01D101235FE0FB683A
:1053300093F83830012B01D1022358E0FB68012299
:1053400083F83820BA68FB689A62FB68FA889A8505
:10535000FB680022DA63FB68222283F83A20FB68AC
:105360005B6B254ADA63FB685B6B244A1A64FB6853
:105370005B6B234ADA64FB685B6B00221A6507F1FA
:1053800008037B61FB68586BFB681B680433194694
:105390007B691A68FB88FFF7C6FB00233B61FB684B
:1053A0001B681B683B61FB681B685B683B613B6972
:1053B000FB68002283F83820FB681B68DA68FB680A
:1053C0001B6842F48072DA60FB681B685A69FB68EC
:1053D0001B6842F001025A61FB681B685A69FB684E
:1053E0001B6842F040025A61002300E00223184685
:1053F0001837BD4680BD00BF8D550008F555000823
:105400001156000880B584B000AF78600023FB60BF
:105410007B681B685B6903F08003802B0CBF012352
:105420000023DBB2FB607B6893F83930DBB2212BC1
:1054300016D1FB68002B13D07B681B685A697B6808
:105440001B6822F080025A617B681B6B002B04D022
:105450007B681B6B1846FFF7BEFB786800F06CF9A1
:105460007B681B685B6903F04003402B0CBF012382
:105470000023DBB2FB607B6893F83A30DBB2222B6F
:1054800016D1FB68002B13D07B681B685A697B68B8
:105490001B6822F040025A617B685B6B002B04D0D2
:1054A0007B685B6B1846FFF796FB786800F05AF94B
:1054B000002318461037BD4680BD80B483B000AFCE
:1054C000786000BF0C37BD465DF8047B704780B440
:1054D00083B000AF786000BF0C37BD465DF8047B39
:1054E000704780B483B000AF786000BF0C37BD4612
:1054F0005DF8047B704780B483B000AF786000BF74
:105500000C37BD465DF8047B704780B483B000AFB4
:10551000786000BF0C37BD465DF8047B704780B5EE
:1055200084B000AF78607B689B6BFB607B681B6816
:105530001B6803F48073002B13D1FB680022DA840C
:10554000FB681B685A69FB681B6822F080025A617D
:10555000FB681B68DA68FB681B6842F04002DA608F
:1055600002E0F868FFF7A9FF00BF1037BD4680BD15
:1055700080B584B000AF78607B689B6BFB60F86897
:10558000FFF7A5FF00BF1037BD4680BD80B584B0D2
:1055900000AF78607B689B6BFB607B681B681B6857
:1055A00003F48073002B1ED1FB680022DA85FB68B0
:1055B0001B68DA68FB681B6822F48072DA60FB689B
:1055C0001B685A69FB681B6822F001025A61FB687C
:1055D0001B685A69FB681B6822F040025A61FB682D
:1055E000202283F83A20F868FFF77BFF00BF1037CE
:1055F000BD4680BD80B584B000AF78607B689B6B92
:10560000FB60F868FFF777FF00BF1037BD4680BD2D
:1056100080B584B000AF78600023FB607B689B6B33
:10562000BB60BB681B685B6903F08003802B0CBF09
:1056300001230023DBB2FB60BB6893F83930DBB297
:10564000212B08D1FB68002B05D0BB680022DA842F
:10565000B86800F071F8BB681B685B6903F0400331
:10566000402B0CBF01230023DBB2FB60BB6893F827
:105670003A30DBB2222B08D1FB68002B05D0BB6887
:105680000022DA85B86800F06DF8BB68DB6B43F088
:105690001002BB68DA63B868FFF737FF00BF103746
:1056A000BD4680BD80B584B000AFF860B9603B6096
:1056B0001346FB712CE0BB69B3F1FF3F28D0BB69F7
:1056C000002B07D0FFF79EFC02463B68D31ABA694D
:1056D0009A421DD2FB681B68DA68FB681B6822F4DB
:1056E000D072DA60FB681B685A69FB681B6822F09D
:1056F00001025A61FB68202283F83920FB682022CE
:1057000083F83A20FB68002283F8382003230FE057
:10571000FB681B681A68BB681340BA689A420CBFE2
:1057200001230023DBB21A46FB799A42C3D000233F
:1057300018461037BD4680BD80B483B000AF786096
:105740007B681B68DA687B681B6822F0C002DA603D
:105750007B68202283F8392000BF0C37BD465DF8F6
:10576000047B704780B483B000AF78607B681B68AF
:10577000DA687B681B6822F49072DA607B681B68C9
:105780005A697B681B6822F001025A617B682022FB
:1057900083F83A2000BF0C37BD465DF8047B7047A4
:1057A0002DE9F04FBDB000AFC7F8E400D7F8E43002
:1057B0001B681B6923F44050D7F8E430D968D7F848
:1057C000E4301A6840EA01031361D7F8E4309A68BC
:1057D000D7F8E4301B691A43D7F8E4305B691A4301
:1057E000D7F8E430DB691343C7F8EC30D7F8E4307E
:1057F0001B68DB6823F4164121F00C01D7F8E43074
:105800001A68D7F8EC300B43D360D7F8E4301B6844
:105810005B6923F44070D7F8E4309969D7F8E43035
:105820001A6840EA01035361D7F8E430DB69B3F545
:10583000004F40F0C281D7F8E4301A68704B9A42AA
:1058400006D0D7F8E4301A686E4B9A4240F0DE80FA
:10585000FEF7A2FFC7F8E800D7F8E8301D464FF082
:1058600000062B463446DA18BA6744EB0403FB679C
:10587000D7E91E345B1946EB04044FF000014FF0EA
:105880000002E20042EA5372D9000B4614465A194C
:10589000C7F8D82044EB0603C7F8DC30D7F8E4306B
:1058A0005B684FF00004DA183A6744EB04037B6747
:1058B000D7E91C341A462346D7E93601FAF74EFEDB
:1058C00003460C461A46504BA3FB02235B094FEAE2
:1058D0000318D7F8E8301D464FF000062B46344633
:1058E000DA18BA6644EB0403FB66D7E91A345B198D
:1058F00046EB04044FF000014FF00002E20042EAE0
:105900005372D9000B4614465A19C7F8D02044EBFD
:105910000603C7F8D430D7F8E4305B684FF00004D2
:10592000DA183A6644EB04037B66D7E918341A4662
:105930002346D7E93401FAF711FE03460C461A460E
:10594000314BA3FB02135B09642101FB03F3D31A60
:10595000DB0032332C4AA2FB03235B095B0003F418
:10596000F8739844D7F8E83019464FF000020B4618
:105970001446D818B86544EB0403FB65D7E9163420
:105980005B1842EB04044FF000054FF00006E60000
:1059900046EA5376DD002B4634465818C7F8C8004F
:1059A00044EB0203C7F8CC30D7F8E4305B684FF023
:1059B0000004DA183A6544EB04037B65D7E9143434
:1059C0001A462346D7E93201FAF7C8FD03460C46CA
:1059D0001A460D4BA3FB02135B09642101FB03F381
:1059E000D31ADB003233084AA2FB03235B0903F01E
:1059F0000702D7F8E4301B6842449A60A7E200BF70
:105A000000100140001401401F85EB51FEF7B0FE6D
:105A1000C7F8E800D7F8E8301D464FF000062B46DF
:105A20003446DA18BA6444EB0403FB64D7E9123451
:105A30005B1946EB04044FF000014FF00002E20056
:105A400042EA5372D9000B4614465A19C7F8C020CF
:105A500044EB0603C7F8C430D7F8E4305B684FF076
:105A60000004DA183A6444EB04037B64D7E9103489
:105A70001A462346D7E93001FAF770FD03460C4673
:105A80001A46C24BA3FB02235B094FEA0318D7F85F
:105A9000E8301D464FF000062B463446DA18BA634C
:105AA00044EB0403FB63D7E90E345B1946EB0404B3
:105AB0004FF000014FF00002E20042EA5372D900B9
:105AC0000B4614465A19C7F8B82044EB0603C7F82A
:105AD000BC30D7F8E4305B684FF00004DA183A6362
