:020000040800F2
:10000000000002200D7E010861120008671200083E
:100010006D12000873120008791200080000000039
:10002000000000000000000000000000A19D00088A
:100030007F12000800000000E19F000849A00008AE
:100040005D7E01085D7E01085D7E01085D7E010820
:100050005D7E01085D7E01088D1200089B1200087C
:10006000A9120008B7120008C51200085D7E010839
:100070005D7E01085D7E01085D7E01085D7E0108F0
:100080005D7E01085D7E01085D7E01085D7E0108E0
:100090005D7E01085D7E01085D7E01085D7E0108D0
:1000A0005D7E0108D51200085D7E01085D7E0108B5
:1000B0005D7E01085D7E01085D7E01085D7E0108B0
:1000C0005D7E01085D7E01085D7E01085D7E0108A0
:1000D0005D7E0108E91200085D7E01085D7E010871
:1000E0005D7E01085D7E01085D7E01085D7E010880
:1000F0005D7E01085D7E01085D7E01085D7E010870
:100100005D7E01085D7E01085D7E01085D7E01085F
:100110005D7E01085D7E0108FD1200085D7E01081C
:100120005D7E01085D7E0108111300085D7E0108F7
:100130005D7E0108251300085D7E01085D7E0108D3
:100140005D7E01085D7E01085D7E01085D7E01081F
:100150005D7E01085D7E0108391300085D7E01089F
:100160005D7E01085D7E01085D7E01085D7E0108FF
:100170005D7E01085D7E01085D7E010800000000D3
:080180005D7E01085D7E0108AF
:1001900010B5054C237833B9044B13B10448AFF3C1
:1001A00000800123237010BD980000200000000093
:1001B0001893010808B5034B1BB103490348AFF37B
:1001C000008008BD000000009C000020189301087A
:1001D000034613F8012B002AFBD1181A0138704787
:1001E00001F0FF01102A2BDB10F0070F08D010F8E8
:1001F000013B013A8B422DD010F0070F42B3F6D1EC
:10020000F0B441EA012141EA014122F007047FF004
:1002100000070023F0E80256083C85EA010586EA5B
:10022000010685FA47F5A3FA87F586FA47F6A5FA97
:1002300087F68EB9EED1F0BC01F0FF0102F00702A3
:1002400032B110F8013B013A83EA010313B1F8D14E
:100250000020704701387047002D06BF354603382F
:10026000073815F0010F07D1013015F4807F02BF68
:10027000013015F4C03F0130F0BC0138704700BFB9
:1002800053B94AB9002908BF00281CBF4FF0FF31FD
:100290004FF0FF3000F074B9ADF1080C6DE904CEF9
:1002A00000F006F8DDF804E0DDE9022304B0704751
:1002B0002DE9F047089E04468846002B40F08580D3
:1002C0008A42154648D9B2FA82F24AB1C2F12007F1
:1002D00001FA02F320FA07F7954047EA0308944031
:1002E0004FEA154E230CB8FBFEF71FFA85FC0EFBF8
:1002F000178843EA084307FB0CF1994209D9EB1828
:1003000007F1FF3080F0E380994240F2E080023F45
:100310002B445B1AA4B2B3FBFEF00EFB103344EA8D
:10032000034400FB0CFCA44509D92C1900F1FF3350
:1003300080F0CB80A44540F2C88002382C4440EACB
:100340000740A4EB0C0400271EB1D4400023C6E9EB
:1003500000433946BDE8F087002A53D0B2FA82F252
:10036000002A40F0B680491B4FEA154E1FFA85F867
:100370000127B1FBFEFC230C0EFB1C1143EA0143D9
:1003800008FB0CF1994207D9EB180CF1FF3002D2AF
:10039000994200F2EC808446591AA3B2B1FBFEF0F8
:1003A0000EFB101443EA044408FB00F8A04507D9EB
:1003B0002C1900F1FF3302D2A04500F2DC80184670
:1003C000A4EB080440EA0C40BEE78B4208D9002E9B
:1003D00078D00027C6E9000138463946BDE8F087E5
:1003E000B3FA83F77FB98B4202D3824200F2BD8019
:1003F000841A61EB030301209846002EA9D0C6E9B8
:100400000048A6E7FFDEC7F12005BB4022FA05FC45
:100410004CEA030C01FA07F420FA05F821FA05F377
:100420004FEA1C4E48EA0404B3FBFEF9210C0EFB14
:1004300019331FFA8CF841EA034309FB08FA9A457D
:1004400002FA07F200FA07F10BD91CEB030309F1DA
:10045000FF3080F088809A4540F28580A9F102093A
:100460006344A3EB0A03A4B2B3FBFEF00EFB10330C
:1004700044EA034400FB08F8A04508D91CEB040437
:1004800000F1FF336BD2A04569D90238644440EAD9
:100490000940A4EB0804A0FB02894C45C6464B4624
:1004A00054D351D0002E69D0B1EB0E0264EB03049B
:1004B00004FA05F522FA07F3FC401D43C6E900548F
:1004C000002746E73746304643E7184637E70746F2
:1004D0001FE7C2F1200320FA03F7954001FA02F06A
:1004E00021FA03F34FEA154E3843010CB3FBFEF734
:1004F0001FFA85F80EFB173341EA034107FB08F3A7
:100500008B4204FA02F407D9691807F1FF3C28D29C
:100510008B4226D9023F2944CB1A81B2B3FBFEF0AD
:100520000EFB103341EA034100FB08F38B4207D96D
:10053000691800F1FF3C10D28B420ED902382944D1
:10054000C91A40EA074714E74145ABD2B8EB020E9F
:1005500069EB0C0201381346A4E76046F0E7184641
:1005600095E76746D8E781467BE7384645E7ACF133
:10057000020C2B4410E702382C4421E73746E8E60A
:10058000704700BF80B500AF03F092FC00F01CF88C
:1005900000F0A6F817F0E4F900F042FA17F03EFA7E
:1005A00017F006FA064803F012FD064818F0E2F9C3
:1005B00008F0ECFD00F05AF908F01CFEFEE700BF61
:1005C000F84A01203093010880B594B000AF07F1DC
:1005D000200330220021184617F0ACFD07F10C0370
:1005E00000221A605A609A60DA601A610023BB60C8
:1005F000284B1B6C274A43F080531364254B1B6C1C
:1006000003F08053BB60BB6800237B60224B1B68F8
:10061000214A43F4804313601F4B1B6803F480435B
:100620007B607B6802233B620123FB6210233B63F8
:100630000223BB630023FB6308233B64A8237B6482
:100640000223BB640423FB6407F12003184602F075
:10065000F9F80346002B01D000F03EF80F23FB60B1
:1006600002233B6100237B614FF4A053BB614FF435
:100670008053FB6107F10C030521184602F052FB81
:100680000346002B01D000F027F800BF5037BD46CD
:1006900080BD00BF003802400070004080B582B0CD
:1006A00000AF78607B68094A934204D1084B1B680D
:1006B0000133074A13607B681B68064A934201D1E5
:1006C00003F018FC00BF0837BD4680BDF84A012082
:1006D000B40000200000014080B400AF72B6FEE715
:1006E00080B58AB000AF07F1140300221A605A6087
:1006F0009A60DA601A6100233B61584B1B6B574AC2
:1007000043F010031363554B1B6B03F010033B6165
:100710003B690023FB60514B1B6B504A43F02003A5
:1007200013634E4B1B6B03F02003FB60FB6800233D
:10073000BB604A4B1B6B494A43F004031363474BAE
:100740001B6B03F00403BB60BB6800237B60434B5F
:100750001B6B424A43F001031363404B1B6B03F0D6
:1007600001037B607B6800233B603C4B1B6B3B4A77
:1007700043F002031363394B1B6B03F002033B602E
:100780003B6801224021364802F07CFE002240F204
:100790000C61344802F076FE1C237B61324BBB6156
:1007A0000023FB6107F1140319462D4802F0B8FC41
:1007B00040237B610123BB610023FB6100233B627B
:1007C00007F114031946264802F0AAFC03237B61B3
:1007D000254BBB610023FB6107F114031946214837
:1007E00002F09EFC40F20C637B610123BB6100239D
:1007F000FB6100233B6207F114031946194802F01C
:100800008FFC00220521062003F028FB062003F0C0
:1008100041FB00220521072003F020FB072003F005
:1008200039FB00220521082003F018FB082003F003
:1008300031FB00220521092003F010FB092003F001
:1008400029FB002205210A2003F008FB0A2003F0FF
:1008500021FB00BF2837BD4680BD00BF00380240E5
:1008600000100240001402400000111080B500AFDB
:10087000044A0021044808F01BFD0246034B1A609D
:1008800000BF80BDC0C301089108000880DF0020C0
:1008900080B5ADF5127D02AF3B1D18600AF06CF813
:1008A00001224FF400713C4802F0ECFD002387F870
:1008B0003F32012387F83F32384B0193384B009386
:1008C000384B394A3949012017F06EFA384818F088
:1008D00051F807F50973184617F00CFA354BC7F8AD
:1008E0002432354BC7F82832344BC7F82C32344BFE
:1008F000C7F8303207F50973184617F00FFA0346A8
:1009000083F00103DBB2002B04D0BA212D4817F08D
:10091000ABFF02E02C4818F02DF807F500732422F5
:100920000021184617F006FC284BC7F8003247F2A2
:100930003053C7F814321923C7F81832244818F076
:1009400019F81A4800F0F4F94FF4FA7008F056FD5F
:1009500007F10C03184607F0CDFF1E4818F00AF8FF
:100960001D4818F007F81B4818F004F807F10C03AD
:10097000184617F079FF174817F0FCFF134807F0E7
:1009800027F9C7F83802002000F09CFD012008F08C
:1009900035FD00F023F8F9E700140240DD78010886
:1009A00075780108557801082978010844E000208D
:1009B00050930108E10B0008250C0008590C0008B1
:1009C000E10C00086093010888930108A8930108CE
:1009D000B8930108CC930108F093010880B500AFEB
:1009E000012208210D4802F04DFD012204210B488F
:1009F00002F048FD4FF47A7008F000FD0022082153
:100A0000064802F03FFD00220421044802F03AFDAE
:100A10004FF47A7008F0F2FC00BF80BD0014024071
:100A200080B500AF114B124A1A60104B4FF4E132FF
:100A30005A600E4B00229A600C4B0022DA600B4B7E
:100A400000221A61094B0C225A61084B00229A615C
:100A5000064B0022DA61054804F0F6F90346002B44
:100A600001D0FFF739FE00BF80BD00BF44E0002089
:100A70000010014080B58AB000AF786007F1140320
:100A800000221A605A609A60DA601A617B681B68FB
:100A90004C4A934240F0918000233B614A4B5B6C8F
:100AA000494A43F010035364474B5B6C03F0100357
:100AB0003B613B690023FB60434B1B6B424A43F0A5
:100AC00001031363404B1B6B03F00103FB60FB68E6
:100AD0004FF4C0637B610223BB610023FB610323EE
:100AE0003B6207237B6207F114031946374802F083
:100AF00017FB374B374A1A60354B4FF000625A608C
:100B0000334B00229A60324B0022DA60304B4FF4B4
:100B100080621A612E4B00225A612D4B00229A618D
:100B20002B4B0022DA612A4B00221A62284B00224A
:100B30005A62274802F0D8FC0346002B01D0FFF789
:100B4000CBFD7B68224A5A63214A7B689363224B20
:100B5000224A1A60204B4FF000625A601E4B40221E
:100B60009A601D4B0022DA601B4B4FF480621A61C1
:100B7000194B00225A61184B00229A61164B002231
:100B8000DA61154B00221A62134B00225A62124896
:100B900002F0AAFC0346002B01D0FFF79DFD7B6805
:100BA0000D4A1A630C4A7B689363002205212520B5
:100BB00003F054F9252003F06DF900BF2837BD4636
:100BC00080BD00BF0010014000380240000002401C
:100BD000E4DF00204064024084DF0020B86402406B
:100BE00080B582B000AF786039600C4B1B681A4644
:100BF0007B6813441A46094B1A60094B1B681A4656
:100C00007B6813441A46064B1A60786800F0D6F8E1
:100C1000034618460837BD4680BD00BFB800002017
:100C2000BC00002080B582B000AF786039607B687E
:100C3000002B0BD0786800F0DBF90246054B1B68EF
:100C40009B1A044A1360786800F07AF900BF0837ED
:100C5000BD4680BDBC00002080B584B000AFF86008
:100C6000B9607A60FB68002B1ED01B4B1B681A46CC
:100C7000BB6813441A46184B1A60184B1B681A4677
:100C8000BB6813441A46154B1A60F86800F0B0F9B7
:100C90000246124B1B689B1A104A1360B968F86829
:100CA00000F0C4F9034613E00B4B1B681A46BB68FF
:100CB00013441A46084B1A60084B1B681A46BB6857
:100CC00013441A46054B1A60B86800F077F80346DB
:100CD00018461037BD4680BDB8000020BC0000207B
:100CE00080B584B000AFF860B9607A60FB68BA681C
:100CF00002FB03F30C4A126813441A460A4B1A60AB
:100D0000FB68BA6802FB03F3084A126813441A46E8
:100D1000064B1A60B968F86800F0C2F90346184635
:100D20001037BD4680BD00BFB8000020BC000020C9
:100D300080B483B000AF7860044A7B68136000BF62
:100D400018460C37BD465DF8047B7047C000002094
:100D500080B584B000AF78607B68DBB23B73084B32
:100D60001B68002B07D0064B186807F10C010A23FB
:100D7000012204F0B6F87B6818461037BD4680BDE6
:100D8000C000002080B586B000AFF860B9607A601E
:100D900000237B6109E0BB685A1CBA601B781846C7
:100DA000FFF7D6FF7B6901337B617A697B689A42E2
:100DB000F1DB7B6818461837BD4680BD80B58AB028
:100DC00000AF78600023FB6106F0C8FD574B1B683D
:100DD000002B01D100F088F9554B1A687B6813404D
:100DE000002B40F08C807B68002B1CD008227B6895
:100DF00013447B607B6803F00703002B13D07B68F0
:100E000023F0070308337B607B6803F00703002BA4
:100E100009D04FF0500383F31188BFF36F8FBFF3F6
:100E20004F8F7B61FEE77B68002B68D0414B1B68CE
:100E30007A689A4263D8404B3B623F4B1B687B62A7
:100E400004E07B6A3B627B6A1B687B627B6A5B684F
:100E50007A689A4203D97B6A1B68002BF1D1334B25
:100E60001B687A6A9A424AD03B6A1B68082213447C
:100E7000FB617B6A1A683B6A1A607B6A5A687B6806
:100E8000D21A08235B009A421ED97A6A7B681344FF
:100E9000BB61BB6903F00703002B09D04FF050037F
:100EA00083F31188BFF36F8FBFF34F8F3B61FEE772
:100EB0007B6A5A687B68D21ABB695A607B6A7A6817
:100EC0005A60B86900F072F91A4B1A687B6A5B685D
:100ED000D31A184A1360174B1A68184B1B689A42AA
:100EE00003D2144B1B68154A13607B6A5A68104B77
:100EF0001B681A437B6A5A607B6A00221A6006F0FC
:100F00003BFDFB6903F00703002B09D04FF05003B2
:100F100083F31188BFF36F8FBFF34F8FFB60FEE742
:100F2000FB6918462837BD4680BD00BF1CC40020A1
:100F300028C4002020C4002014C4002024C40020A1
:100F400080B586B000AF78607B687B617B68002BE2
:100F500046D008235B427A6913447B617B693B611D
:100F60003B695A68204B1B681340002B09D14FF096
:100F7000500383F31188BFF36F8FBFF34F8FFB6074
:100F8000FEE73B691B68002B09D04FF0500383F349
:100F90001188BFF36F8FBFF34F8FBB60FEE73B69D4
:100FA0005A68114B1B681340002B19D03B691B6812
:100FB000002B15D13B695A680B4B1B68DB431A4069
:100FC0003B695A6006F0CAFC3B695A68074B1B68CC
:100FD0001344064A1360386900F0E8F806F0CCFCC8
:100FE00000BF1837BD4680BD28C4002020C40020A3
:100FF00080B487B000AF78607B687B6108235B4278
:101000007A6913447B617B693B613B695A68064B93
:101010001B68DB431340FB60FB6818461C37BD466A
:101020005DF8047B704700BF28C4002080B588B0FD
:1010300000AF7860396006F091FC3868FFF7BEFEBB
:1010400038617B68FB6008235B42FA681344FB60ED
:10105000FB68BB607B68FB613B69BB61BB685A682E
:101060000E4B1B68DB4313407B6107E0FA69531C9E
:10107000FB61BB69591CB96112781A707B695A1EF1
:101080007A61002BF2D17868FFF75AFF06F074FC02
:101090003B6918462037BD4680BD00BF28C40020EC
:1010A00080B586B000AF7860396006F057FC3B68C9
:1010B0007A6802FB03F37B617869FFF77FFEF860D3
:1010C000FB683B6104E03B695A1C3A6100221A70DC
:1010D0007B695A1E7A61002BF5D106F04DFCFB6846
:1010E00018461837BD4680BD80B485B000AF4CF2BD
:1010F0005033BB60274BFB60FB6803F00703002BFA
:101100000CD0FB680733FB60FB6823F00703FB6030
:10111000BA68FB68D31A1F4A1344BB60FB687B6044
:101120001D4A7B6813601C4B00225A607B68BA68BA
:101130001344FB600822FB689B1AFB60FB6823F0EA
:101140000703FB60FB68154A1360144B1B68002201
:101150005A60124B1B6800221A607B683B603B6838
:10116000FA68D21A3B685A600C4B1A683B681A60DE
:101170003B685B680A4A13603B685B68094A136016
:10118000094B4FF000421A6000BF1437BD465DF8AE
:10119000047B7047C400002014C400201CC400203D
:1011A00024C4002020C4002028C4002080B485B0BE
:1011B00000AF7860284BFB6002E0FB681B68FB60B7
:1011C000FB681B687A689A42F7D8FB68BB60FB68CB
:1011D0005B68BA6813447A689A4208D1FB685A6817
:1011E0007B685B681A44FB685A60FB687B607B68BD
:1011F000BB607B685B68BA681A44FB681B689A42EC
:1012000018D1FB681A68154B1B689A420DD07B6891
:101210005A68FB681B685B681A447B685A60FB6805
:101220001B681A687B681A6008E00C4B1A687B68B8
:101230001A6003E0FB681A687B681A60FA687B68CA
:101240009A4202D0FB687A681A6000BF1437BD4624
:101250005DF8047B704700BF14C400201CC400204C
:1012600080B400AFFEE780B400AFFEE780B400AF0B
:10127000FEE780B400AFFEE780B400AFFEE780B4C5
:1012800000AF00BFBD465DF8047B704780B500AF7E
:10129000012002F011F900BF80BD80B500AF02202F
:1012A00002F00AF900BF80BD80B500AF042002F053
:1012B00003F900BF80BD80B500AF082002F0FCF844
:1012C00000BF80BD80B500AF102002F0F5F800BF70
:1012D00080BD000080B500AF024802F067FF00BF8C
:1012E00080BD00BF784B012080B500AF024803F0FD
:1012F000D9FF00BF80BD00BF44E0002080B500AF33
:10130000024802F053FF00BF80BD00BFF84A012031
:1013100080B500AF024802F07FFA00BF80BD00BF79
:10132000E4DF002080B500AF024800F0CBFC00BF36
:1013300080BD00BF98F9002080B500AF024802F0E0
:101340006BFA00BF80BD00BF84DF002080B582B093
:1013500000AF0346FB80FB88184600F035F8FB8899
:10136000184600F061F800BF0837BD4680BD000098
:1013700080B582B000AF00237B60124B5B6C114ADA
:1013800043F4804353640F4B5B6C03F480437B60F6
:101390007B6800233B600B4B1B6C0A4A43F0805375
:1013A0001364084B1B6C03F080533B603B680022C6
:1013B0000F216FF0010002F051FD00BF0837BD465C
:1013C00080BD00BF0038024080B582B000AF034648
:1013D000FB80FB88022B0CD10A2002F0ABFD02211E
:1013E0000E4802F037F80346002B02D10C4817F0E4
:1013F000C1FAFB88012B0CD10A2002F09BFD0221CF
:10140000064802F027F80346002B02D1054817F0E2
:10141000B1FA00BF0837BD4680BD00BF00140240CE
:10142000149401082894010880B582B000AF0346E7
:10143000FB801E4817F018FAFB88102B0CD10A20ED
:1014400002F078FD10211A4802F004F80346002B40
:1014500002D1184817F08EFAFB88082B0CD10A200D
:1014600002F068FD0821124801F0F4FF0346002B4A
:1014700002D1114817F07EFAFB88042B0CD10A2008
:1014800002F058FD04210A4801F0E4FF0346002B56
:1014900002D10A4817F06EFA642002F04BFD084AA8
:1014A000FB88536100BF0837BD4680BD3C940108EE
:1014B00000100240509401086094010870940108E3
:1014C000003C014080B582B000AF0346FB71FB7960
:1014D000002B04D10021074802F010FE06E0FB7942
:1014E000012B03D10021034802F0CAFD00BF0837D9
:1014F000BD4680BD384B012080B588B000AF786014
:101500000023FB610023FB60AA4BBB6100237B61CE
:1015100000233B617B68002B01D1012385E17B68BF
:1015200093F84430DBB2002B06D17B68002283F8AD
:101530004520786808F014FE0023BB609E4B5B6C6E
:101540009D4A43F4804353649B4B5B6C03F480439C
:10155000BB60BB68994B5B68984A23F400035360F7
:10156000964B5A687B681B6A944913434B607B68AF
:101570001B6803F580531A687B681B6842F0010200
:1015800003F580531A6002F0C9FC786111E002F0A3
:10159000C5FC02467B69D31AB3F5FA7F09D97B688B
:1015A000032283F844207B68002283F8452003232C
:1015B0003BE17B681B6803F580531B6803F0010364
:1015C000002BE4D17B681B681B69FB61FB6923F07E
:1015D0001C03FB6101F03EFDB861BB69784A934290
:1015E00008D9BB69774A934204D8FB6943F00803E2
:1015F000FB6127E0BB69734A934208D9BB69724A11
:10160000934204D8FB6943F00C03FB611AE0BB6909
:101610006D4A934203D9BB696C4A934211D9BB69A5
:101620006A4A934208D9BB69694A934204D8FB6964
:1016300043F00403FB6105E0FB6943F01003FB6129
:1016400000E000BF7B681B68FA691A614FF4004232
:101650000021786800F019FC0346002B0BD0012311
:101660003B613969786800F0CFFD7B68012283F81F
:1016700044200123D9E0FF2002F05CFC7B685B681A
:10168000002B00F0A78002F049FC786107F10C0301
:101690001A460121786800F090FB02F03FFC0246F8
:1016A0007B69D31A41F2883293420FD901233B61FF
:1016B0003969786800F0A8FD7B68012283F844202E
:1016C0007B68002283F845200323AEE0FB6803F02B
:1016D0000403002BDAD04FF480520021786800F028
:1016E000D4FB0346002B0BD001233B61396978689A
:1016F00000F08AFD7B68012283F84420012394E0F6
:1017000002F00CFC786107F10C031A46012178689D
:1017100000F053FB02F002FC02467B69D31A41F24F
:10172000883293420FD901233B613969786800F010
:101730006BFD7B68012283F844207B68002283F8DC
:101740004520032371E0FB6803F02003002BDAD06F
:1017500007F10C031A461F21786800F02EFB0346A0
:10176000002B0BD001233B613969786800F04CFDF8
:101770007B68012283F84420012356E0FB6803F0D4
:101780001003002B04D07B684FF40062DA6002E0A3
:101790007B680022DA60FB6803F00403002B03D0AF
:1017A0007B6800229A6037E07B684FF480429A6041
:1017B00032E000BF00879303003802400038014048
:1017C000FF2C3101BF0E1602FF869303FFE0F505E3
:1017D0007FD1F0087B68DB68DB089AB27B689B6886
:1017E0005B089BB213439BB21A460021786800F055
:1017F0004CFB0346002B0BD001233B613969786811
:1018000000F002FD7B68012283F8442001230CE0F4
:1018100040F6FF7002F08EFB3969786800F0F4FC46
:101820007B68012283F84420002318462037BD46F8
:1018300080BD00BF80B487B000AFF860B9607A6047
:101840003B6000237B61FB6893F84530012B01D19D
:10185000022352E0FB68012283F84520FB68022244
:1018600083F84420FB68BA68DA6200237B6130E0C9
:101870007B695B01BA6813443B613B694FF480129A
:101880001A607B6940F2F45202FB03F37A68134456
:101890001A463B699A60FB68DB69002B05D13B69FE
:1018A0001B6843F440023B691A603B68013B7A695C
:1018B0009A4208D27B6901335B01BA6813441A4625
:1018C0003B69DA6002E0BA683B69DA607B69013340
:1018D0007B617A693B689A42CAD3FB681B68BA6825
:1018E00003F5805310331A60FB68012283F844200B
:1018F000FB68002283F84520002318461C37BD46AC
:101900005DF8047B704780B487B000AFF860B960C1
:101910007A603B6000237B61FB6893F84530012BC4
:1019200001D1022356E0FB68012283F84520FB68C1
:10193000022283F84420FB68BA689A6200237B6124
:1019400034E07B695B01BA6813443B613B694FF04B
:1019500000421A603B6944F2F4525A607B6940F2DB
:10196000F45202FB03F37A6813441A463B699A6007
:10197000FB689B69012B05D13B695B6823F0004242
:101980003B695A603B68013B7A699A4208D27B699D
:1019900001335B01BA6813441A463B69DA6002E01E
:1019A000BA683B69DA607B6901337B617A693B68BD
:1019B0009A42C6D3FB681B68BA6803F580530C33A0
:1019C0001A60FB68012283F84420FB68002283F838
:1019D0004520002318461C37BD465DF8047B704740
:1019E00080B487B000AF7860396000237B6100234A
:1019F000FB6000233B617B6893F84530012B01D1EC
:101A00000223CDE07B68012283F845207B68022217
:101A100083F844203B68002B09D17B68012283F8BE
:101A200044207B68002283F845200123B8E07B68CE
:101A3000DB6A1B68002B09DA7B68122283F84420DA
:101A40007B68002283F845200123A9E03B6840F22F
:101A5000F452934215D93B68544AA2FB03239B0AD4
:101A60007B613A68514BA3FB02139B0A40F2F4518D
:101A700001FB03F3D31A002B05D07B6901337B6193
:101A800001E001237B617B69012B1CD17B68DB6A50
:101A90001A687B68DB6A42F040521A607B68DB6A36
:101AA0003A68C2F30C025A607B68DB6A1A687B688A
:101AB000DB6A42F000421A607B68DB6ADB681A4628
:101AC0007B68DA624BE000233B6144E07B68DB6AC1
:101AD0001A687B68DB6A22F040521A603B69002B6F
:101AE00007D17B68DB6A1A687B68DB6A42F0805248
:101AF0001A607B68DB6A40F2F4525A607B69013BF2
:101B00003A699A4216D17B68DB6A1A687B68DB6A9D
:101B100042F000521A607B69254A02FB03F23B68DF
:101B2000134403F2F453FB607B68DB6AFA68C2F388
:101B30000C025A607B68DB6A1A687B68DB6A42F0D9
:101B400000421A607B68DB6ADB681A467B68DA62EF
:101B50003B6901333B613A697B699A42B6D37B6842
:101B60001B6803F5805314331B6803F00403002B38
:101B70000DD07B681B6803F58053143304221A6070
:101B80007B681B6803F58053043300221A607B686E
:101B9000012283F844207B68002283F8452000233B
:101BA00018461C37BD465DF8047B70470BB002AC8D
:101BB0000CFAFFFF80B485B000AF78600023FB60B3
:101BC0007B6893F84530012B01D1022374E07B68D8
:101BD000012283F845207B68022283F844205AE0E2
:101BE000FB680133FB607B689B6A1B6803F44073EE
:101BF000B3F5007F0DD17B689A6A7B681A637B68B6
:101C000001229A637B689B6ADB681A467B689A624A
:101C100041E07B689B6A1B6803F44073002B0BD187
:101C20007B689B6B5A1C7B689A637B689B6ADB684A
:101C30001A467B689A622EE07B689A6A7B685A63D0
:101C40007B689B6B5A1C7B689A637B689B6B012B40
:101C500003D17B689A6A7B681A637B689B6A1B68FE
:101C60001B0CC3F30D031A1F7B68DA637B681B6BC5
:101C70009A687B681A647B689B6ADB681A467B6893
:101C80009A627B68012283F844207B68002283F8F3
:101C90004520002310E07B689B6A1B68002B02DB59
:101CA000FB68032B9CD97B68012283F844207B6866
:101CB000002283F84520012318461437BD465DF8FD
:101CC000047B704780B582B000AF78607B681B688A
:101CD00003F5805314331B6803F04003402B12D1EB
:101CE000786808F0EBFA7B681B6803F580531433BF
:101CF00040221A607B68012283F844207B6800221E
:101D000083F845201BE07B681B6803F58053143380
:101D10001B6803F00103012B11D1786800F039F83A
:101D20007B681B6803F58053143301221A607B68BB
:101D3000012283F844207B68002283F845207B68D9
:101D40001B6803F5805314334FF480321A607B68AC
:101D50001B6803F5805314331B6803F40043B3F589
:101D6000004F12D1786800F01EF87B681B6803F5FD
:101D7000805314334FF400421A607B68012283F8C9
:101D800044207B68002283F8452000BF0837BD4609
:101D900080BD80B483B000AF786000BF0C37BD4613
:101DA0005DF8047B704780B483B000AF786000BFFB
:101DB0000C37BD465DF8047B704780B586B000AF38
:101DC000F8600B467A607B8100237B6100233B61D6
:101DD000FB6893F84430DBB2822B01D1022350E040
:101DE000FB68822283F84420FB681B681B697B61C7
:101DF0007B6903F01C037B61FB681B8ADB029BB2DF
:101E00007A6913437B617B899B0103F4F8637A69E8
:101E100013437B617B6923F002037B617B6943F0A1
:101E200001037B61FB681B687A691A6102F076F82E
:101E3000386115E002F072F802463B69D31AB3F537
:101E4000803F09D3FB68012283F84420FB6800220D
:101E500083F84520032314E0FB681B681B697B6142
:101E60007B6903F00103002BE4D1FB681B685B690D
:101E70009BB21A467B681A60FB68012283F84420F3
:101E8000002318461837BD4680BD80B586B000AF28
:101E9000F8600B467A607B8100237B6100233B6105
:101EA000FB6893F84430DBB2422B01D102234EE0B1
:101EB000FB68422283F84420FB681B681B697B6136
:101EC0007B6903F01C037B61FB681B8ADB029BB20E
:101ED0007A6913437B617B899B0103F4F8637A6918
:101EE00013437B617B6943F002037B617B6943F0B1
:101EF00001037B617B689AB2FB681B685A61FB68CF
:101F00001B687A691A6102F009F8386115E002F07D
:101F100005F802463B69D31AB3F5803F09D3FB6845
:101F2000012283F84420FB68002283F84520032324
:101F30000DE0FB681B681B697B617B6903F0010393
:101F4000002BE4D1FB68012283F8442000231846CB
:101F50001837BD4680BD80B582B000AF78607B6821
:101F600093F84530012B01D102231FE07B68012249
:101F700083F845207B68022283F84420786800F0CB
:101F800045FB786800F07CFB786800F013FC78680B
:101F900000F0B0FB786800F0DDFB7B68012283F87D
:101FA00044207B68002283F8452000231846083728
:101FB000BD4680BD80B582B000AF78607B6893F885
:101FC0004530012B01D102231FE07B68012283F8F9
:101FD00045207B68022283F84420786800F0A2FB49
:101FE000786800F0CFFB786800F067FB786800F055
:101FF000E1FB786800F027FB7B68012283F844202E
:102000007B68002283F84520002318460837BD4628
:1020100080BD000080B584B000AF786039600023D7
:10202000FB607B6893F84530012B01D10223E4E08B
:102030007B68012283F845207B68022283F84420D4
:102040003B68002B00F0B1807B681B681B68FB605D
:10205000FA686C4B1340FB603B681A683B685B682E
:102060001A433B689B681A433B68DB681A437B68EA
:102070009B681A433B681B691A433B685B691A43B8
:102080007B68DB681A433B689B691A433B68DB69E2
:102090001A433B681B6A1A433B685B6A1A433B68F6
:1020A0009B6A1343FA681343FB607B681B68FA68FA
:1020B0001A607B681B681B68FB60012001F03AFF17
:1020C0007B681B68FA681A603B68DA6A3B681B6BBE
:1020D0001A433B685B6B1A433B689B6B1A433B6834
:1020E000DB6B1A433B681B6C1A433B685B6C42EA30
:1020F00003013B689A6C7B681B680A435A607B68E3
:102100001B685B68FB60012001F014FF7B681B68A3
:10211000FA685A607B681B683A68D26C9A607B6880
:102120001B683A68126DDA607B681B689B69FB600C
:10213000FA684FF641731340FB603B685B6D1A040D
:102140003B689B6D1A433B68DB6D1A433B681B6E13
:102150001A433B685B6E1A433B689B6E1343FA68F5
:102160001343FB607B681B68FA689A617B681B6895
:102170009B69FB60012001F0DDFE7B681B68FA684B
:102180009A613B68D96E3B681A6F7B681B680A438B
:10219000DA617B681B68DB69FB60012001F0CAFE25
:1021A0007B681B68FA68DA611EE07B681B681B6845
:1021B000FB60FB6823F49043FB607B689A687B6854
:1021C000DB681343FA681343FB607B681B68FA689B
:1021D0001A607B681B681B68FB60012001F0AAFE87
:1021E0007B681B68FA681A607B68012283F84420C8
:1021F0007B68002283F84520002318461037BD462F
:1022000080BD00BF0F8120FF80B5B0B000AF786007
:1022100039600023C7F8BC303B68002B07D07B68CF
:102220004FF40062DA607B684FF480429A600023CA
:10223000BB640023FB6400233B6500237B65002314
:10224000BB650023FB657B68DB69002B03D14FF482
:1022500080633B6601E000233B664FF400737B66BE
:102260000023BB660023FB6600233B6700237B67DC
:102270000023BB674023FB670023C7F8803000239F
:10228000C7F884300023C7F888300023C7F88C30A3
:102290000023C7F890300023C7F894300023C7F814
:1022A00098300023C7F89C308023C7F8A030002363
:1022B000C7F8A4300023C7F8A8300023C7F8AC3013
:1022C0000023C7F8B0300023C7F8B4300023C7F8A4
:1022D000B8307B681B681B68C7F8BC30D7F8BC20D7
:1022E000AC4B1340C7F8BC30BA6CFB6C1A433B6D67
:1022F0001A437B6D1A437B689B681A43BB6D1A4374
:10230000FB6D1A437B68DB681A433B6E1A437B6E96
:102310001A43BB6E1A43FB6E1A433B6F1343D7F845
:10232000BC201343C7F8BC307B681B68D7F8BC20BF
:102330001A607B681B681B68C7F8BC30012001F07D
:10234000F9FD7B681B68D7F8BC201A607A6FBB6FF9
:102350001A43FB6F1A43D7F880301A43D7F88430FA
:102360001A43D7F888301A43D7F88C3042EA030171
:10237000D7F890207B681B680A435A607B681B680B
:102380005B68C7F8BC30012001F0D4FD7B681B6896
:10239000D7F8BC205A607B681B68D7F894209A60F5
:1023A0007B681B68D7F89820DA607B681B689B699C
:1023B000C7F8BC30D7F8BC204FF641731340C7F8BC
:1023C000BC30D7F89C301A04D7F8A0301A43D7F89D
:1023D000A4301A43D7F8A8301A43D7F8AC301A43C0
:1023E000D7F8B0301343D7F8BC201343C7F8BC303C
:1023F0007B681B68D7F8BC209A617B681B689B6967
:10240000C7F8BC30012001F095FD7B681B68D7F848
:10241000BC209A61D7F8B410D7F8B8207B681B6845
:102420000A43DA617B681B68DB69C7F8BC300120AE
:1024300001F080FD7B681B68D7F8BC20DA610023BF
:10244000BB604FF00073FB6000233B614FF400134F
:102450007B610023BB610023FB6100233B620023FF
:102460007B620423BB624FF00073FB624FF4803346
:102470003B634FF480037B634FF40053BB638023C3
:10248000FB6300233B6400237B647B681B6803F5CC
:10249000805318331B68C7F8BC30D7F8BC203E4BBC
:1024A0001340C7F8BC30BA68FB681A433B691A434B
:1024B0007B691A43BB691A43FB691A433B6A1A4397
:1024C0007B6A1A43BB6A1343D7F8BC201343C7F88F
:1024D000BC307B681B6803F580531833D7F8BC20E9
:1024E0001A607B681B6803F5805318331B68C7F8B4
:1024F000BC30012001F01EFD7B681B6803F5805392
:102500001833D7F8BC201A60FA6A3B6B1A437B6B0E
:102510001A43BB6B1A43FB6B1A433B6C9B001A4379
:102520007B6C1A437B681B6842F4000203F58053FE
:102530001A607B681B6803F580531B68C7F8BC30C2
:10254000012001F0F7FC7B681B6803F58053D7F886
:10255000BC201A607B689B69012B0FD17B681B68CC
:1025600003F580531C331A687B681B6842F4803281
:1025700042F0400203F580531C331A607B685B69AC
:102580001A460021786800F009F800BFC037BD4640
:1025900080BD00BF0F8120FF233FDEF880B487B0ED
:1025A00000AFF860B9607A607B6805331B781B0266
:1025B0007A680432127813437B61BA68114B134472
:1025C0001A467B6913607B6803331B781A067B68A5
:1025D00002331B781B041A437B6801331B781B02F0
:1025E00013437A68127813437B61BA68064B13442D
:1025F0001A467B69136000BF1C37BD465DF8047B3B
:10260000704700BF408002404480024080B584B0E3
:1026100000AF78600023FB607B681B681A687B68EA
:102620001B6842F008021A607B681B681B68FB602D
:10263000012000F0E9F87B681B68FA681A6000BFA7
:102640001037BD4680BD80B584B000AF78600023F0
:10265000FB607B681B681A687B681B6822F00802B5
:102660001A607B681B681B68FB60012000F0CCF8D7
:102670007B681B68FA681A6000BF1037BD4680BDD2
:1026800080B584B000AF78600023FB607B681B6876
:102690001A687B681B6842F004021A607B681B683A
:1026A0001B68FB60012000F0AFF87B681B68FA68CC
:1026B0001A6000BF1037BD4680BD80B584B000AF42
:1026C00078600023FB607B681B681A687B681B6866
:1026D00022F004021A607B681B681B68FB60012003
:1026E00000F092F87B681B68FA681A6000BF103728
:1026F000BD4680BD80B483B000AF78607B681B6846
:1027000003F5805318331A687B681B6842F4005243
:1027100003F5805318331A6000BF0C37BD465DF8CF
:10272000047B704780B483B000AF78607B681B681F
:1027300003F5805318331A687B681B6822F4005233
:1027400003F5805318331A6000BF0C37BD465DF89F
:10275000047B704780B483B000AF78607B681B68EF
:1027600003F5805318331A687B681B6842F0020235
:1027700003F5805318331A6000BF0C37BD465DF86F
:10278000047B704780B483B000AF78607B681B68BF
:1027900003F5805318331A687B681B6822F0020225
:1027A00003F5805318331A6000BF0C37BD465DF83F
:1027B000047B704780B584B000AF78600023FB6075
:1027C0007B681B6803F5805318331A687B681B68A5
:1027D00042F4801203F5805318331A607B681B683B
:1027E00003F5805318331B68FB60012000F00CF8E0
:1027F0007B681B68FA6803F5805318331A6000BFC2
:102800001037BD4680BD000080B485B000AF786051
:102810000A4B1B680A4AA2FB03235B0A7A6802FB85
:1028200003F3FB6000BFFB685A1EFA60002BF9D16E
:1028300000BF1437BD465DF8047B704708000020D8
:10284000D34D621080B586B000AF78607B68002BF6
:1028500001D101235BE27B681B6803F00103002BBD
:1028600075D0A34B9B6803F00C03042B0CD0A04B3A
:102870009B6803F00C03082B12D19D4B5B6803F49B
:102880008003B3F5800F0BD1994B1B6803F4003321
:10289000002B5BD07B685B68002B57D1012336E2AD
:1028A0007B685B68B3F5803F06D1914B1B68904A0B
:1028B00043F4803313601DE07B685B68B3F5A02FA1
:1028C0000CD18B4B1B688A4A43F480231360884BDE
:1028D0001B68874A43F4803313600BE0844B1B680A
:1028E000834A23F480331360814B1B68804A23F4AE
:1028F000802313607B685B68002B13D001F00EFB14
:10290000386108E001F00AFB02463B69D31A642BE8
:1029100001D90323FBE1764B1B6803F40033002B42
:10292000F0D014E001F0FAFA386108E001F0F6FAAC
:1029300002463B69D31A642B01D90323E7E16C4BB0
:102940001B6803F40033002BF0D100E000BF7B686C
:102950001B6803F00203002B63D0654B9B6803F0F8
:102960000C03002B0BD0624B9B6803F00C03082B6D
:102970001CD15F4B5B6803F48003002B16D15C4BCA
:102980001B6803F00203002B05D07B68DB68012B7A
:1029900001D00123BBE1564B1B6823F0F8027B6892
:1029A0001B69DB00524913430B603AE07B68DB682C
:1029B000002B20D04F4B01221A6001F0AFFA386192
:1029C00008E001F0ABFA02463B69D31A022B01D9A9
:1029D00003239CE1464B1B6803F00203002BF0D05D
:1029E000434B1B6823F0F8027B681B69DB004049FE
:1029F00013430B6015E03F4B00221A6001F08EFA82
:102A0000386108E001F08AFA02463B69D31A022BCA
:102A100001D903237BE1364B1B6803F00203002B33
:102A2000F0D17B681B6803F00803002B30D07B6873
:102A30005B69002B16D0304B01221A6001F06EFA50
:102A4000386108E001F06AFA02463B69D31A022BAA
:102A500001D903235BE1264B5B6F03F00203002BDC
:102A6000F0D015E0244B00221A6001F057FA3861CB
:102A700008E001F053FA02463B69D31A022B01D950
:102A8000032344E11A4B5B6F03F00203002BF0D1E8
:102A90007B681B6803F00403002B00F0A080002378
:102AA000FB75134B1B6C03F08053002B0FD10023DD
:102AB000BB600F4B1B6C0E4A43F0805313640C4BEE
:102AC0001B6C03F08053BB60BB680123FB750B4B91
:102AD0001B6803F48073002B21D1084B1B68074A45
:102AE00043F48073136001F019FA386111E000BFFC
:102AF0000038024000004742800E4742007000400C
:102B000001F00CFA02463B69D31A022B01D90323C8
:102B1000FDE0814B1B6803F48073002BF0D07B68D1
:102B20009B68012B06D17D4B1B6F7C4A43F0010350
:102B300013671CE07B689B68052B0CD1774B1B6FE0
:102B4000764A43F004031367744B1B6F734A43F0D8
:102B5000010313670BE0714B1B6F704A23F00103F5
:102B600013676E4B1B6F6D4A23F0040313677B687A
:102B70009B68002B15D001F0D1F938610AE001F013
:102B8000CDF902463B69D31A41F28832934201D90A
:102B90000323BCE0614B1B6F03F00203002BEED05C
:102BA00014E001F0BBF938610AE001F0B7F9024620
:102BB0003B69D31A41F28832934201D90323A6E03C
:102BC000564B1B6F03F00203002BEED1FB7D012B54
:102BD00005D1524B1B6C514A23F0805313647B6820
:102BE0009B69002B00F092804C4B9B6803F00C0318
:102BF000082B5CD07B689B69022B41D1484B00229B
:102C00001A6001F08BF9386108E001F087F902469B
:102C10003B69D31A022B01D9032378E03F4B1B6891
:102C200003F00073002BF0D17B68DA697B681B6AC4
:102C30001A437B685B6A9B011A437B689B6A5B084B
:102C4000013B1B041A437B68DB6A1B0633491343B1
:102C50004B60334B01221A6001F060F9386108E0E3
:102C600001F05CF902463B69D31A022B01D9032318
:102C70004DE02A4B1B6803F00073002BF0D045E0B9
:102C8000274B00221A6001F049F9386108E001F091
:102C900045F902463B69D31A022B01D9032336E0DA
:102CA0001E4B1B6803F00073002BF0D12EE07B68F5
:102CB0009B69012B01D1012329E0184B5B68FB6064
:102CC000FB6803F480027B68DB699A421CD1FB68D5
:102CD00003F03F027B681B6A9A4215D1FA6847F6F7
:102CE000C07313407A68526A93420DD1FB6803F4B3
:102CF00040327B689B6A9A4206D1FB6803F070629F
:102D00007B68DB6A9A4201D0012300E00023184669
:102D10001837BD4680BD00BF00700040003802403B
:102D20006000474280B584B000AF786039607B684E
:102D3000002B01D10123CCE0684B1B6803F00F038B
:102D40003A689A420CD9654B3A68D2B21A70634B12
:102D50001B6803F00F033A689A4201D00123B8E0E0
:102D60007B681B6803F00203002B20D07B681B6884
:102D700003F00403002B05D0594B9B68584A43F4D9
:102D8000E05393607B681B6803F00803002B05D0B9
:102D9000534B9B68524A43F460439360504B9B688B
:102DA00023F0F0027B689B684D4913438B607B687E
:102DB0001B6803F00103002B44D07B685B68012B88
:102DC00007D1474B1B6803F40033002B19D10123B3
:102DD0007FE07B685B68022B03D07B685B68032B1A
:102DE00007D13F4B1B6803F00073002B09D101236F
:102DF0006FE03B4B1B6803F00203002B01D1012362
:102E000067E0374B9B6823F003027B685B683449BB
:102E100013438B6001F082F8F8600AE001F07EF85D
:102E20000246FB68D31A41F28832934201D9032348
:102E30004FE02B4B9B6803F00C027B685B689B00A8
:102E40009A42EBD1254B1B6803F00F033A689A4274
:102E50000CD2224B3A68D2B21A70204B1B6803F096
:102E60000F033A689A4201D0012332E07B681B6865
:102E700003F00403002B08D0194B9B6823F4E052A5
:102E80007B68DB68164913438B607B681B6803F023
:102E90000803002B09D0124B9B6823F460427B6827
:102EA0001B69DB000E4913438B6000F021F80146DB
:102EB0000B4B9B681B0903F00F030A4AD35C21FAF2
:102EC00003F3094A1360094B1B68184614F080FE8F
:102ED000002318461037BD4680BD00BF003C0240AD
:102EE00000380240ECC30108080000200000002068
:102EF000F0B585B000AF00227A600022FA600022AF
:102F00003A600022BA60504A926802F00C02042A29
:102F100007D0082A08D0002A40F08E804B4BBB60B7
:102F20008DE04B4BBB608AE0474A526802F03F029B
:102F30007A60454A526802F48002002A24D0424A4C
:102F40005268920911464FF0000240F2FF154FF00F
:102F5000000601EA050302EA06043D4A02FB04F109
:102F6000002202FB03F20A443949A3FB0101531872
:102F700019467B684FF000041A462346FDF780F996
:102F800003460C46FB6049E02F4B5B689B094FF002
:102F9000000440F2FF114FF0000203EA010504EAC9
:102FA0000206294632464FF000034FF00004540158
:102FB00044EAD1644B0119462246491B62EB0602E2
:102FC0004FF000034FF00004940144EA91648B0138
:102FD0005B1A64EB02044FF000014FF00002E200C4
:102FE00042EA5372D9000B4614465B1946EB0404BF
:102FF0004FF000014FF00002A20242EA9352990200
:103000000B461446184621467B684FF000041A46CA
:103010002346FDF735F903460C46FB600A4B5B6817
:103020001B0C03F0030301335B003B60FA683B6851
:10303000B2FBF3F3BB6002E0044BBB6000BFBB68B4
:1030400018461437BD46F0BD003802400024F40095
:1030500040787D0180B400AF034B1B681846BD4625
:103060005DF8047B704700BF0800002080B500AF0A
:10307000FFF7F0FF0146054B9B689B0A03F007032F
:10308000034AD35C21FA03F3184680BD003802409E
:10309000FCC3010880B500AFFFF7DCFF0146054B1C
:1030A0009B685B0B03F00703034AD35C21FA03F32D
:1030B000184680BD00380240FCC3010880B483B0CC
:1030C00000AF786039607B680F221A60124B9B68F2
:1030D00003F003027B685A600F4B9B6803F0F00219
:1030E0007B689A600C4B9B6803F4E0527B68DA6063
:1030F000094B9B68DB0803F4E0527B681A61074BBD
:103100001B6803F00F023B681A6000BF0C37BD4616
:103110005DF8047B704700BF00380240003C02406D
:1031200080B489B000AF7860396000237B610023F0
:103130003B610023BB610023FB616BE10122FB6962
:1031400002FA03F37B613B681B687A6913403B61B9
:103150003A697B699A4240F05A813B685B68012B6F
:103160000BD03B685B68022B07D03B685B68112B78
:1031700003D03B685B68122B30D17B689B68BB61D6
:10318000FB695B00032202FA03F3DB43BA691340D5
:10319000BB613B68DA68FB695B0002FA03F3BA695A
:1031A0001343BB617B68BA699A607B685B68BB61EB
:1031B0000122FB6902FA03F3DB43BA691340BB61E6
:1031C0003B685B681B0903F00102FB6902FA03F329
:1031D000BA691343BB617B68BA695A607B68DB6874
:1031E000BB61FB695B00032202FA03F3DB43BA69AC
:1031F0001340BB613B689A68FB695B0002FA03F30A
:10320000BA691343BB617B68BA69DA603B685B6883
:10321000022B03D03B685B68122B23D1FB69DA08D1
:103220007B68083253F82230BB61FB6903F0070367
:103230009B000F2202FA03F3DB43BA691340BB6120
:103240003B681A69FB6903F007039B0002FA03F36A
:10325000BA691343BB61FB69DA087B680832B96954
:1032600043F822107B681B68BB61FB695B0003228B
:1032700002FA03F3DB43BA691340BB613B685B6846
:1032800003F00302FB695B0002FA03F3BA6913431C
:10329000BB617B68BA691A603B685B6803F0805366
:1032A000002B00F0B4800023FB605F4B5B6C5E4A38
:1032B00043F4804353645C4B5B6C03F48043FB60DA
:1032C000FB685A4AFB699B08023352F82330BB6102
:1032D000FB6903F003039B000F2202FA03F3DB43B5
:1032E000BA691340BB617B68514A93422BD07B681B
:1032F000504A934225D07B684F4A93421FD07B6847
:103300004E4A934219D07B684D4A934213D07B6852
:103310004C4A93420DD07B684B4A934207D07B685E
:103320004A4A934201D107230EE008230CE006230A
:103330000AE0052308E0042306E0032304E0022357
:1033400002E0012300E00023FA6902F00302920088
:103350009340BA691343BB613449FB699B0802334C
:10336000BA6941F823203A4B1B68BB613B69DB43D8
:10337000BA691340BB613B685B6803F48033002B80
:1033800003D0BA693B691343BB61314ABB6913601F
:103390002F4B5B68BB613B69DB43BA691340BB6180
:1033A0003B685B6803F40033002B03D0BA693B69C8
:1033B0001343BB61264ABB695360254B9B68BB61C5
:1033C0003B69DB43BA691340BB613B685B6803F44C
:1033D0008013002B03D0BA693B691343BB611C4ABD
:1033E000BB6993601A4BDB68BB613B69DB43BA691D
:1033F0001340BB613B685B6803F40013002B03D0F0
:10340000BA693B691343BB61114ABB69D360FB696D
:103410000133FB61FB690F2B7FF690AE00BF2437B1
:10342000BD465DF8047B704700380240003801401B
:10343000000002400004024000080240000C02406C
:10344000001002400014024000180240001C02401C
:10345000003C014080B485B000AF78600B467B80B3
:103460007B681A697B881340002B02D00123FB7311
:1034700001E00023FB73FB7B18461437BD465DF863
:10348000047B704780B483B000AF78600B467B80CC
:1034900013467B707B78002B03D07A887B689A6117
:1034A00003E07B881A047B689A6100BF0C37BD4635
:1034B0005DF8047B7047000080B582B000AF034622
:1034C000FB80084B5A69FB881340002B06D0054A45
:1034D000FB885361FB881846FDF738FF00BF0837AB
:1034E000BD4680BD003C014080B586B000AF78602D
:1034F00000237B6100F012FD38617B68002B01D155
:10350000012399E07B68002283F834207B68022243
:1035100083F835207B681B681A687B681B6822F07B
:1035200001021A600FE000F0F9FC02463B69D31A71
:10353000052B08D97B6820225A657B68032283F813
:103540003520032378E07B681B681B6803F00103C8
:10355000002BE8D17B681B681B687B617A69384B5C
:1035600013407B617B685A687B689B681A437B6861
:10357000DB681A437B681B691A437B685B691A43E3
:103580007B689B691A437B68DB691A437B681B6A0B
:1035900013437A6913437B617B685B6A042B07D111
:1035A0007B68DA6A7B681B6B13437A6913437B6120
:1035B0007B681B687A691A607B681B685B697B6142
:1035C0007B6923F007037B617B685B6A7A6913433D
:1035D0007B617B685B6A042B17D17B689B6A7A6985
:1035E00013437B617B68DB6A002B0ED0786800F0A8
:1035F00001FB0346002B08D07B6840225A657B689C
:10360000012283F83520012316E07B681B687A6964
:103610005A61786800F0B8FA0346FB607B68DB6D9E
:103620003F229A40FB689A607B6800225A657B685B
:10363000012283F83520002318461837BD4680BD87
:103640003F8010F080B586B000AFF860B9607A6056
:103650003B600023FB75FB689B6D3B61FB6893F847
:103660003430012B01D1022340E0FB68012283F8B2
:103670003420FB6893F83530DBB2012B2FD1FB6887
:10368000022283F83520FB6800225A653B687A687D
:10369000B968F86800F04AFAFB68DB6D3F229A408F
:1036A0003B699A60FB681B681A68FB681B6842F0FC
:1036B00016021A60FB681B6C002B07D0FB681B68A6
:1036C0001A68FB681B6842F008021A60FB681B68F6
:1036D0001A68FB681B6842F001021A6005E0FB688B
:1036E000002283F834200223FB75FB7D184618372F
:1036F000BD4680BD80B584B000AF78607B689B6DAF
:10370000FB6000F00BFCB8607B6893F83530DBB2EF
:10371000022B08D07B6880225A657B68002283F8E0
:103720003420012352E07B681B681A687B681B68A1
:1037300022F016021A607B681B685A697B681B6856
:1037400022F080025A617B681B6C002B03D17B68DE
:103750009B6C002B07D07B681B681A687B681B6812
:1037600022F008021A607B681B681A687B681B6875
:1037700022F001021A6013E000F0D0FB0246BB68A1
:10378000D31A052B0CD97B6820225A657B6800224E
:1037900083F834207B68032283F83520032315E067
:1037A0007B681B681B6803F00103002BE4D17B6876
:1037B000DB6D3F229A40FB689A607B68002283F8A9
:1037C00034207B68012283F8352000231846103707
:1037D000BD4680BD80B483B000AF78607B6893F84D
:1037E0003530DBB2022B04D07B6880225A6501237E
:1037F0000CE07B68052283F835207B681B681A681B
:103800007B681B6822F001021A60002318460C37FF
:10381000BD465DF8047B704780B586B000AF786028
:103820000023BB60924B1B68924AA2FB03239B0AB6
:103830007B617B689B6D3B613B691B68FB607B68C0
:10384000DB6D08229A40FB681340002B1AD07B687E
:103850001B681B6803F00403002B13D07B681B68F4
:103860001A687B681B6822F004021A607B68DB6DB3
:1038700008229A403B699A607B685B6D43F00102C5
:103880007B685A657B68DB6D01229A40FB681340B8
:10389000002B12D07B681B685B6903F08003002B50
:1038A0000BD07B68DB6D01229A403B699A607B6894
:1038B0005B6D43F002027B685A657B68DB6D042216
:1038C0009A40FB681340002B12D07B681B681B6872
:1038D00003F00203002B0BD07B68DB6D04229A40BF
:1038E0003B699A607B685B6D43F004027B685A65B4
:1038F0007B68DB6D10229A40FB681340002B43D09D
:103900007B681B681B6803F00803002B3CD07B68B6
:10391000DB6D10229A403B699A607B681B681B68CC
:1039200003F48023002B18D07B681B681B6803F40A
:103930000023002B08D17B681B6C002B24D07B68F4
:103940001B6C786898471FE07B689B6C002B1BD032
:103950007B689B6C7868984716E07B681B681B68DF
:1039600003F48073002B07D17B681B681A687B689F
:103970001B6822F008021A607B681B6C002B03D0C6
:103980007B681B6C786898477B68DB6D20229A40C7
:10399000FB681340002B00F08E807B681B681B685F
:1039A00003F01003002B00F086807B68DB6D202283
:1039B0009A403B699A607B6893F83530DBB2052BFF
:1039C00036D17B681B681A687B681B6822F0160278
:1039D0001A607B681B685A697B681B6822F080024A
:1039E0005A617B681B6C002B03D17B689B6C002B9E
:1039F00007D07B681B681A687B681B6822F0080286
:103A00001A607B68DB6D3F229A403B699A607B6855
:103A1000002283F834207B68012283F835207B68FC
:103A20001B6D002B7DD07B681B6D7868984778E014
:103A30007B681B681B6803F48023002B1CD07B6809
:103A40001B681B6803F40023002B08D17B685B6CA8
:103A5000002B30D07B685B6C786898472BE07B68E4
:103A6000DB6B002B27D07B68DB6B7868984722E004
:103A700008000020B5814E1B7B681B681B6803F49F
:103A80008073002B0FD17B681B681A687B681B68EA
:103A900022F010021A607B68002283F834207B68D1
:103AA000012283F835207B68DB6B002B03D07B6819
:103AB000DB6B786898477B685B6D002B32D07B6846
:103AC0005B6D03F00103002B22D07B68052283F895
:103AD00035207B681B681A687B681B6822F001022E
:103AE0001A60BB680133BB607A699A4207D37B686E
:103AF0001B681B6803F00103002BF2D100E000BF3C
:103B00007B68002283F834207B68012283F835200B
:103B10007B68DB6C002B05D07B68DB6C7868984792
:103B200000E000BF1837BD4680BD00BF80B485B03F
:103B300000AFF860B9607A603B60FB681B681A6888
:103B4000FB681B6822F480221A60FB681B683A68D5
:103B50005A60FB689B68402B08D1FB681B687A6839
:103B60009A60FB681B68BA68DA6007E0FB681B684C
:103B7000BA689A60FB681B687A68DA6000BF14371D
:103B8000BD465DF8047B704780B485B000AF7860B7
:103B90007B681B68DBB2103B144AA2FB03231B09A2
:103BA000FB60134AFB6813441B781A467B68DA658E
:103BB000FB68032B09D97B681B6823F47F7323F010
:103BC00003031A1D7B689A6507E07B681B6823F472
:103BD0007F7323F003037A6893657B689B6D1846B7
:103BE0001437BD465DF8047B704700BFABAAAAAA94
:103BF000E4C3010880B485B000AF78600023FB7394
:103C00007B689B6ABB607B689B69002B1FD1BB688C
:103C1000032B56D801A252F823F000BF2D3C000818
:103C20003F3C00082D3C0008C33C00087B68DB6A71
:103C300003F08073002B46D00123FB7343E07B68C5
:103C4000DB6AB3F1C07F40D10123FB733DE07B68A9
:103C50009B69B3F5005F21D1BB68032B37D801A264
:103C600052F823F0753C00087B3C0008753C0008C6
:103C70008D3C00080123FB7330E07B68DB6A03F0B6
:103C80008073002B25D00123FB7322E07B68DB6A65
:103C9000B3F1C07F1FD10123FB731CE0BB68022B73
:103CA00003D9BB68032B03D018E00123FB7315E095
:103CB0007B68DB6A03F08073002B0ED00123FB735B
:103CC0000BE000BF0AE000BF08E000BF06E000BF55
:103CD00004E000BF02E000BF00E000BFFB7B18462D
:103CE0001437BD465DF8047B704700BF80B485B0D3
:103CF00000AF78607B6803F00703FB600C4BDB6868
:103D0000BB60BA684FF6FF031340BB60FB681A0242
:103D1000BB68134343F0BF6343F40033BB60044A02
:103D2000BB68D36000BF1437BD465DF8047B7047A5
:103D300000ED00E080B400AF044BDB681B0A03F029
:103D400007031846BD465DF8047B704700ED00E0B0
:103D500080B483B000AF0346FB7197F90730002BA6
:103D60000BDBFB7903F01F02074997F907305B096A
:103D7000012000FA02F241F8232000BF0C37BD46B3
:103D80005DF8047B704700BF00E100E080B483B0C1
:103D900000AF03463960FB7197F90730002B0ADB4F
:103DA0003B68DAB20C4997F907301201D2B20B44E2
:103DB00083F800230AE03B68DAB20849FB7903F094
:103DC0000F03043B1201D2B20B441A7600BF0C372A
:103DD000BD465DF8047B704700E100E000ED00E0C7
:103DE00080B489B000AFF860B9607A60FB6803F016
:103DF0000703FB61FB69C3F10703042B28BF0423FE
:103E0000BB61FB690433062B02D9FB69033B00E06D
:103E100000237B614FF0FF32BB6902FA03F3DA4300
:103E2000BB681A407B699A404FF0FF317B6901FA09
:103E300003F3D9437B680B40134318462437BD4630
:103E40005DF8047B704780B582B000AF7860786819
:103E5000FFF74CFF00BF0837BD4680BD80B586B078
:103E600000AF0346B9607A60FB7300237B61FFF704
:103E700061FF78617A68B9687869FFF7B1FF024637
:103E800097F90F3011461846FFF780FF00BF18372B
:103E9000BD4680BD80B582B000AF0346FB7197F987
:103EA00007301846FFF754FF00BF0837BD4680BDF6
:103EB00080B500AF0E4B1B680D4A43F400731360CE
:103EC0000B4B1B680A4A43F480631360084B1B6862
:103ED000074A43F4807313600320FFF7B4FF002008
:103EE00013F076FEFDF744FA0023184680BD00BFAC
:103EF000003C024080B400AF064B1B781A46064BCC
:103F00001B681344044A136000BFBD465DF8047B80
:103F1000704700BF0400002084E0002080B400AFA0
:103F2000034B1B681846BD465DF8047B704700BF15
:103F300084E0002080B584B000AF7860FFF7EEFF2A
:103F4000B8607B68FB60FB68B3F1FF3F05D0094BAD
:103F50001B781A46FB681344FB6000BFFFF7DEFFC7
:103F60000246BB68D31AFA689A42F7D800BF1037E6
:103F7000BD4680BD0400002080B582B000AF7860EF
:103F80007B68002B01D101231DE07B6893F83D3055
:103F9000DBB2002B06D17B68002283F83C207868D6
:103FA00013F09EFD7B68022283F83D207B681A682F
:103FB0007B6804331946104600F0A6FB7B6801229B
:103FC00083F83D20002318460837BD4680BD80B4E5
:103FD00085B000AF78607B681B68DA687B681B6817
:103FE00042F00102DA607B681B689B6803F00703FC
:103FF000FB60FB68062B07D07B681B681A687B6830
:104000001B6842F001021A60002318461437BD46AF
:104010005DF8047B704780B582B000AF78607B6844
:10402000002B01D101231DE07B6893F83D30DBB20A
:10403000002B06D17B68002283F83C20786800F0D2
:1040400015F87B68022283F83D207B681A687B683C
:1040500004331946104600F057FB7B68012283F8B1
:104060003D20002318460837BD4680BD80B483B08C
:1040700000AF786000BF0C37BD465DF8047B704729
:1040800080B584B000AF786039607B681B6801221E
:104090003968184600F022FE7B681B68154A934277
:1040A00004D07B681B68144A934201D1012300E0CD
:1040B0000023002B07D07B681B685A6C7B681B6849
:1040C00042F400425A647B681B689B6803F0070354
:1040D000FB60FB68062B07D07B681B681A687B684F
:1040E0001B6842F001021A60002318461037BD46D3
:1040F00080BD00BF000001400004014080B582B0D7
:1041000000AF786039607B681B6800223968184608
:1041100000F0E4FD7B681B68224A934204D07B6870
:104120001B68214A934201D1012300E00023002BA8
:1041300017D07B681B681A6A41F211131340002BD9
:104140000FD17B681B681A6A40F244431340002B6E
:1041500007D17B681B685A6C7B681B6822F400429D
:104160005A647B681B681A6A41F211131340002BD2
:104170000FD17B681B681A6A40F244431340002B3E
:1041800007D17B681B681A687B681B6822F00102F4
:104190001A607B68012283F83D2000231846083707
:1041A000BD4680BD000001400004014080B582B0E2
:1041B00000AF78607B681B681B6903F00203022B69
:1041C00022D17B681B68DB6803F00203022B1BD142
:1041D0007B681B686FF002021A617B6801221A7704
:1041E0007B681B689B6903F00303002B03D078688E
:1041F00000F06BFA05E0786800F05DFA786800F08E
:104200006EFA7B6800221A777B681B681B6903F0D3
:104210000403042B22D17B681B68DB6803F00403D2
:10422000042B1BD17B681B686FF004021A617B684A
:1042300002221A777B681B689B6903F44073002B8A
:1042400003D0786800F041FA05E0786800F033FAAE
:10425000786800F044FA7B6800221A777B681B6854
:104260001B6903F00803082B22D17B681B68DB68FD
:1042700003F00803082B1BD17B681B686FF0080252
:104280001A617B6804221A777B681B68DB6903F07C
:104290000303002B03D0786800F017FA05E0786874
:1042A00000F009FA786800F01AFA7B6800221A77A1
:1042B0007B681B681B6903F01003102B22D17B68FD
:1042C0001B68DB6803F01003102B1BD17B681B6895
:1042D0006FF010021A617B6808221A777B681B68EE
:1042E000DB6903F44073002B03D0786800F0EDF92C
:1042F00005E0786800F0DFF9786800F0F0F97B6895
:1043000000221A777B681B681B6903F00103012BED
:104310000ED17B681B68DB6803F00103012B07D11A
:104320007B681B686FF001021A617868FCF7B6F9C8
:104330007B681B681B6903F08003802B0ED17B68B0
:104340001B68DB6803F08003802B07D17B681B6848
:104350006FF080021A61786800F06CFD7B681B6862
:104360001B6903F04003402B0ED17B681B68DB68A0
:1043700003F04003402B07D17B681B686FF04002BD
:104380001A61786800F0B5F97B681B681B6903F057
:104390002003202B0ED17B681B68DB6803F0200311
:1043A000202B07D17B681B686FF020021A617868A8
:1043B00000F036FD00BF0837BD4680BD80B584B033
:1043C00000AFF860B9607A60FB6893F83C30012B6D
:1043D00001D10223B4E0FB68012283F83C20FB6892
:1043E000022283F83D207B680C2B00F29F8001A203
:1043F00052F823F0294400082D4500082D450008F7
:104400002D450008694400082D4500082D45000889
:104410002D450008AB4400082D4500082D45000837
:104420002D450008EB440008FB681B68B968184676
:1044300000F00AFAFB681B689A69FB681B6842F087
:1044400008029A61FB681B689A69FB681B6822F086
:1044500004029A61FB681B689969BB681A69FB686A
:104460001B680A439A6162E0FB681B68B9681846DA
:1044700000F05AFAFB681B689A69FB681B6842F4F3
:1044800000629A61FB681B689A69FB681B6822F4EA
:1044900080629A61FB681B689969BB681B691A0294
:1044A000FB681B680A439A6141E0FB681B68B968B6
:1044B000184600F0AFFAFB681B68DA69FB681B68F6
:1044C00042F00802DA61FB681B68DA69FB681B6866
:1044D00022F00402DA61FB681B68D969BB681A69BB
:1044E000FB681B680A43DA6121E0FB681B68B96856
:1044F000184600F003FBFB681B68DA69FB681B6861
:1045000042F40062DA61FB681B68DA69FB681B68C9
:1045100022F48062DA61FB681B68D969BB681B6999
:104520001A02FB681B680A43DA6100E000BFFB68FF
:10453000012283F83D20FB68002283F83C20002301
:1045400018461037BD4680BD80B584B000AF786096
:1045500039607B6893F83C30012B01D10223A6E03F
:104560007B68012283F83C207B68022283F83D208F
:104570007B681B689B68FB60FB6823F07703FB602C
:10458000FB6823F47F43FB607B681B68FA689A60D2
:104590003B681B68402B67D0402B0BD8102B73D087
:1045A000102B02D8002B6FD078E0202B6CD0302B52
:1045B0006AD073E0702B0DD0702B04D8502B33D001
:1045C000602B41D06AE0B3F5805F66D0B3F5005F41
:1045D00017D063E07B6818683B6899683B685A6845
:1045E0003B68DB6800F05AFB7B681B689B68FB60DC
:1045F000FB6843F07703FB607B681B68FA689A608E
:104600004CE07B6818683B6899683B685A683B686F
:10461000DB6800F043FB7B681B689A687B681B685B
:1046200042F480429A6039E07B6818683B685968B8
:104630003B68DB681A4600F0B7FA7B681B685021BC
:10464000184600F010FB29E07B6818683B68596841
:104650003B68DB681A4600F0D6FA7B681B6860216D
:10466000184600F000FB19E07B6818683B68596841
:104670003B68DB681A4600F097FA7B681B684021AC
:10468000184600F0F0FA09E07B681A683B681B687E
:104690001946104600F0E7FA00E000BF7B680122EF
:1046A00083F83D207B68002283F83C2000231846D5
:1046B0001037BD4680BD80B483B000AF786000BFC6
:1046C0000C37BD465DF8047B704780B483B000AF03
:1046D000786000BF0C37BD465DF8047B704780B43E
:1046E00083B000AF786000BF0C37BD465DF8047B37
:1046F000704780B483B000AF786000BF0C37BD4610
:104700005DF8047B7047000080B485B000AF78602E
:1047100039607B681B68FB607B68404A934213D01A
:104720007B68B3F1804F0FD07B683D4A93420BD03A
:104730007B683C4A934207D07B683B4A934203D054
:104740007B683A4A934208D1FB6823F07003FB6010
:104750003B685B68FA681343FB607B682F4A9342AF
:104760002BD07B68B3F1804F27D07B682C4A9342D3
:1047700023D07B682B4A93421FD07B682A4A9342FE
:104780001BD07B68294A934217D07B68284A934202
:1047900013D07B68274A93420FD07B68264A934206
:1047A0000BD07B68254A934207D07B68244A93420A
:1047B00003D07B68234A934208D1FB6823F44073FB
:1047C000FB603B68DB68FA681343FB60FB6823F01F
:1047D00080023B685B691343FB607B68FA681A6080
:1047E0003B689A687B68DA623B681A687B689A6201
:1047F0007B680A4A934203D07B680C4A934203D1F8
:104800003B681A697B681A637B6801225A6100BFA2
:104810001437BD465DF8047B704700BF00000140BF
:104820000004004000080040000C0040000401406B
:104830000040014000440140004801400018004091
:10484000001C00400020004080B487B000AF7860BA
:1048500039607B681B6A23F001027B681A627B68FF
:104860001B6A7B617B685B683B617B689B69FB6063
:10487000FB6823F07003FB60FB6823F00303FB601D
:104880003B681B68FA681343FB607B6923F00203F3
:104890007B613B689B687A6913437B617B68204A34
:1048A000934203D07B681F4A93420CD17B6923F06B
:1048B00008037B613B68DB687A6913437B617B6932
:1048C00023F004037B617B68154A934203D07B6825
:1048D000144A934211D13B6923F480733B613B69D5
:1048E00023F400733B613B685B693A6913433B61A6
:1048F0003B689B693A6913433B617B683A695A603C
:104900007B68FA689A613B685A687B685A637B687F
:104910007A691A6200BF1C37BD465DF8047B704798
:10492000000001400004014080B487B000AF78600F
:1049300039607B681B6A23F010027B681A627B680F
:104940001B6A7B617B685B683B617B689B69FB6082
:10495000FB6823F4E043FB60FB6823F44073FB60D7
:104960003B681B681B02FA681343FB607B6923F0FA
:1049700020037B613B689B681B017A6913437B6161
:104980007B68224A934203D07B68214A93420DD12F
:104990007B6923F080037B613B68DB681B017A69DC
:1049A00013437B617B6923F040037B617B68174A7B
:1049B000934203D07B68164A934213D13B6923F498
:1049C00080633B613B6923F400633B613B685B6947
:1049D0009B003A6913433B613B689B699B003A69C2
:1049E00013433B617B683A695A607B68FA689A6155
:1049F0003B685A687B689A637B687A691A6200BF71
:104A00001C37BD465DF8047B704700BF00000140C5
:104A10000004014080B487B000AF786039607B68E3
:104A20001B6A23F480727B681A627B681B6A7B6155
:104A30007B685B683B617B68DB69FB60FB6823F03C
:104A40007003FB60FB6823F00303FB603B681B689B
:104A5000FA681343FB607B6923F400737B613B6856
:104A60009B681B027A6913437B617B68214A9342EE
:104A700003D07B68204A93420DD17B6923F4006305
:104A80007B613B68DB681B027A6913437B617B694E
:104A900023F480637B617B68164A934203D07B6872
:104AA000154A934213D13B6923F480533B613B6920
:104AB00023F400533B613B685B691B013A69134374
:104AC0003B613B689B691B013A6913433B617B680F
:104AD0003A695A607B68FA68DA613B685A687B68B1
:104AE000DA637B687A691A6200BF1C37BD465DF8DD
:104AF000047B7047000001400004014080B487B08F
:104B000000AF786039607B681B6A23F480527B6851
:104B10001A627B681B6A3B617B685B687B617B68B0
:104B2000DB69FB60FB6823F4E043FB60FB6823F474
:104B30004073FB603B681B681B02FA681343FB6011
:104B40003B6923F400533B613B689B681B033A6954
:104B500013433B617B68124A934203D07B68114A3E
:104B6000934209D17B6923F480437B613B685B6995
:104B70009B017A6913437B617B687A695A607B6821
:104B8000FA68DA613B685A687B681A647B683A693C
:104B90001A6200BF1C37BD465DF8047B704700BF3A
:104BA000000001400004014080B487B000AFF8600D
:104BB000B9607A60FB681B6A7B61FB681B6A23F043
:104BC0000102FB681A62FB689B693B613B6923F049
:104BD000F0033B617B681B013A6913433B617B69CE
:104BE00023F00A037B617A69BB6813437B61FB682E
:104BF0003A699A61FB687A691A6200BF1C37BD4640
:104C00005DF8047B704780B487B000AFF860B9608E
:104C10007A60FB681B6A23F01002FB681A62FB686B
:104C20009B697B61FB681B6A3B617B6923F4704372
:104C30007B617B681B037A6913437B613B6923F0CB
:104C4000A0033B61BB681B013A6913433B61FB68EE
:104C50007A699A61FB683A691A6200BF1C37BD46DF
:104C60005DF8047B704780B485B000AF7860396030
:104C70007B689B68FB60FB6823F07003FB603A680D
:104C8000FB68134343F00703FB607B68FA689A6094
:104C900000BF1437BD465DF8047B704780B487B011
:104CA00000AFF860B9607A603B60FB689B687B612D
:104CB0007B6923F47F437B613B681A027B681A435C
:104CC000BB6813437A6913437B61FB687A699A6016
:104CD00000BF1C37BD465DF8047B704780B487B0C9
:104CE00000AFF860B9607A60BB6803F01F0301226F
:104CF00002FA03F37B61FB681A6A7B69DB431A40A3
:104D0000FB681A62FB681A6ABB6803F01F037968C4
:104D100001FA03F31A43FB681A6200BF1C37BD4651
:104D20005DF8047B7047000080B485B000AF786008
:104D300039607B6893F83C30012B01D102235AE0A3
:104D40007B68012283F83C207B68022283F83D20A7
:104D50007B681B685B68FB607B681B689B68BB604B
:104D6000FB6823F07003FB603B681B68FA68134321
:104D7000FB607B681B68FA685A607B681B68214A85
:104D8000934222D07B681B68B3F1804F1DD07B68B3
:104D90001B681D4A934218D07B681B681B4A9342CC
:104DA00013D07B681B681A4A93420ED07B681B683D
:104DB000184A934209D07B681B68174A934204D073
:104DC0007B681B68154A93420CD1BB6823F08003B3
:104DD000BB603B685B68BA681343BB607B681B6859
:104DE000BA689A607B68012283F83D207B680022C4
:104DF00083F83C20002318461437BD465DF8047B39
:104E0000704700BF0000014000040040000800405F
:104E1000000C004000040140004001400018004028
:104E200080B483B000AF786000BF0C37BD465DF83A
:104E3000047B704780B483B000AF786000BF0C374C
:104E4000BD465DF8047B704780B582B000AF7860E6
:104E50007B68002B01D101233FE07B6893F8393058
:104E6000DBB2002B06D17B68002283F838207868FB
:104E7000FBF700FE7B68242283F839207B681B68DF
:104E8000DA687B681B6822F40052DA60786800F008
:104E90007FFD7B681B681A697B681B6822F490425F
:104EA0001A617B681B685A697B681B6822F02A02BA
:104EB0005A617B681B68DA687B681B6842F40052A1
:104EC000DA607B680022DA637B68202283F839206D
:104ED0007B68202283F83A20002318460837BD4615
:104EE00080BD80B588B002AFF860B9603B60134602
:104EF000FB8000237B61FB6893F83930DBB2202B09
:104F000040F08380BB68002B02D0FB88002B01D1CE
:104F100001237BE0FB6893F83830012B01D1022399
:104F200074E0FB68012283F83820FB680022DA6312
:104F3000FB68212283F83920FEF7F0FF7861FB68D7
:104F4000FA889A84FB68FA88DA84FB68002283F87E
:104F5000382042E0FB68DB8C9BB2013B9AB2FB68D5
:104F6000DA84FB689B68B3F5805F22D13B680093CD
:104F70007B6900228021F86800F089FB0346002B42
:104F800001D0032342E0BB683B613B691B881A46A2
:104F9000FB681B68C2F308025A60FB681B69002BA0
:104FA00003D1BB680233BB6017E0BB680133BB6051
:104FB00013E03B6800937B6900228021F86800F0D1
:104FC00066FB0346002B01D003231FE0BB685A1C7D
:104FD000BA601A78FB681B685A60FB68DB8C9BB26E
:104FE000002BB7D13B6800937B6900224021F86811
:104FF00000F04DFB0346002B01D0032306E0FB68C5
:10500000202283F83920002300E0022318461837B5
:10501000BD4680BD80B586B000AFF860B96013466C
:10502000FB80FB6893F83930DBB2202B53D1BB688F
:10503000002B02D0FB88002B01D101234CE0FB6840
:1050400093F83830012B01D1022345E0FB6801229F
:1050500083F83820BA68FB681A62FB68FA889A8479
:10506000FB68FA88DA84FB680022DA63FB68212295
:1050700083F83920FB681B6B194ADA63FB681B6BEA
:10508000184A1A64FB681B6B174ADA64FB681B6BCF
:1050900000221A6507F108037B61FB68186B7B69C6
:1050A0001968FB681B6804331A46FB88FEF7CAFAC6
:1050B000FB681B686FF040021A60FB68002283F8EF
:1050C0003820FB681B685A69FB681B6842F0800245
:1050D0005A61002300E0022318461837BD4680BD00
:1050E000095500085B550008FB55000880B586B0DF
:1050F00000AFF860B9601346FB80FB6893F83A3064
:10510000DBB2202B66D1BB68002B02D0FB88002BC2
:1051100001D101235FE0FB6893F83830012B01D106
:10512000022358E0FB68012283F83820BA68FB6844
:105130009A62FB68FA889A85FB680022DA63FB684A
:10514000222283F83A20FB685B6B254ADA63FB680E
:105150005B6B244A1A64FB685B6B234ADA64FB6866
:105160005B6B00221A6507F108037B61FB68586BD3
:10517000FB681B68043319467B691A68FB88FEF7D5
:1051800061FA00233B61FB681B681B683B61FB689D
:105190001B685B683B613B69FB68002283F8382031
:1051A000FB681B68DA68FB681B6842F48072DA608F
:1051B000FB681B685A69FB681B6842F001025A6170
:1051C000FB681B685A69FB681B6842F040025A6121
:1051D000002300E0022318461837BD4680BD00BFFB
:1051E00077550008DF550008FB55000880B584B0EE
:1051F00000AF78600023FB607B681B685B6903F08D
:105200008003802B0CBF01230023DBB2FB607B6893
:1052100093F83930DBB2212B16D1FB68002B13D069
:105220007B681B685A697B681B6822F080025A61A0
:105230007B681B6B002B04D07B681B6B1846FEF74A
:1052400059FA786800F06DFA7B681B685B6903F0B7
:105250004003402B0CBF01230023DBB2FB607B68C3
:1052600093F83A30DBB2222B16D1FB68002B13D017
:105270007B681B685A697B681B6822F040025A6190
:105280007B685B6B002B04D07B685B6B1846FEF77A
:1052900031FA786800F05BFA002318461037BD46F3
:1052A00080BD000080B588B000AF78607B681B6867
:1052B0001B68FB617B681B68DB68BB617B681B68E4
:1052C0005B697B6100233B610023FB60FB6903F0AA
:1052D0000F033B613B69002B0DD1FB6903F02003F9
:1052E000002B08D0BB6903F02003002B03D07868A3
:1052F00000F0CDFAD1E03B69002B00F0B0807B6973
:1053000003F00103002B05D1BB6903F49073002B5C
:1053100000F0A580FB6903F00103002B0AD0BB69F4
:1053200003F48073002B05D07B68DB6B43F0010234
:105330007B68DA63FB6903F00403002B0AD07B6906
:1053400003F00103002B05D07B68DB6B43F0020206
:105350007B68DA63FB6903F00203002B0AD07B69E8
:1053600003F00103002B05D07B68DB6B43F00402E4
:105370007B68DA63FB6903F00803002B0FD0BB697D
:1053800003F02003002B04D17B6903F00103002B01
:1053900005D07B68DB6B43F008027B68DA637B68CF
:1053A000DB6B002B78D0FB6903F02003002B07D0C8
:1053B000BB6903F02003002B02D0786800F067FA85
:1053C0007B681B685B6903F04003402B0CBF012323
:1053D0000023DBB2FB607B68DB6B03F00803002B70
:1053E00002D1FB68002B31D0786800F0B0F97B68FF
:1053F0001B685B6903F04003402B23D17B681B686B
:105400005A697B681B6822F040025A617B685B6BBB
:10541000002B13D07B685B6B214A1A657B685B6B42
:105420001846FEF7D7F90346002B16D07B685B6B56
:105430001B6D7A68526B104698470EE0786800F052
:1054400059F80AE0786800F055F806E0786800F04E
:1054500051F87B680022DA631EE000BF1CE0FB69A4
:1054600003F08003002B08D0BB6903F08003002BFE
:1054700003D0786800F09DF90FE0FB6903F040036A
:10548000002B0AD0BB6903F04003002B05D07868DD
:1054900000F0E5F900BF00E000BF2037BD4680BD49
:1054A0008B57000880B483B000AF786000BF0C3722
:1054B000BD465DF8047B704780B483B000AF786070
:1054C00000BF0C37BD465DF8047B704780B483B0E5
:1054D00000AF786000BF0C37BD465DF8047B7047B5
:1054E00080B483B000AF786000BF0C37BD465DF874
:1054F000047B704780B483B000AF786000BF0C3786
:10550000BD465DF8047B704780B584B000AF78601D
:105510007B689B6BFB607B681B681B6803F4807374
:10552000002B13D1FB680022DA84FB681B685A69E0
:10553000FB681B6822F080025A61FB681B68DA680E
:10554000FB681B6842F04002DA6002E0F868FFF78F
:10555000A9FF00BF1037BD4680BD80B584B000AF45
:1055600078607B689B6BFB60F868FFF7A5FF00BF66
:105570001037BD4680BD80B584B000AF78607B68D1
:105580009B6BFB607B681B681B6803F48073002BBC
:105590001ED1FB680022DA85FB681B68DA68FB68AD
:1055A0001B6822F48072DA60FB681B685A69FB682A
:1055B0001B6822F001025A61FB681B685A69FB688C
:1055C0001B6822F040025A61FB68202283F83A20CF
:1055D000F868FFF77BFF00BF1037BD4680BD80B580
:1055E00084B000AF78607B689B6BFB60F868FFF766
:1055F00077FF00BF1037BD4680BD80B584B000AFD7
:1056000078600023FB607B689B6BBB60BB681B689A
:105610005B6903F08003802B0CBF01230023DBB206
:10562000FB60BB6893F83930DBB2212B08D1FB68F3
:10563000002B05D0BB680022DA84B86800F071F84E
:10564000BB681B685B6903F04003402B0CBF012360
:105650000023DBB2FB60BB6893F83A30DBB2222B4D
:1056600008D1FB68002B05D0BB680022DA85B8683A
:1056700000F06DF8BB68DB6B43F01002BB68DA63C7
:10568000B868FFF737FF00BF1037BD4680BD80B553
:1056900084B000AFF860B9603B601346FB712CE04A
:1056A000BB69B3F1FF3F28D0BB69002B07D0FEF7E1
:1056B00035FC02463B68D31ABA699A421DD2FB6890
:1056C0001B68DA68FB681B6822F4D072DA60FB683A
:1056D0001B685A69FB681B6822F001025A61FB686B
:1056E000202283F83920FB68202283F83A20FB68C7
:1056F000002283F8382003230FE0FB681B681A6838
:10570000BB681340BA689A420CBF01230023DBB286
:105710001A46FB799A42C3D0002318461037BD467B
:1057200080BD80B483B000AF78607B681B68DA68A6
:105730007B681B6822F0C002DA607B68202283F855
:10574000392000BF0C37BD465DF8047B704780B43C
:1057500083B000AF78607B681B68DA687B681B6881
:1057600022F49072DA607B681B685A697B681B6858
:1057700022F001025A617B68202283F83A2000BFA0
:105780000C37BD465DF8047B704780B584B000AF30
:1057900078607B689B6BFB60FB680022DA85FB68A6
:1057A0000022DA84F868FFF7A5FE00BF1037BD4677
:1057B00080BD80B485B000AF78607B6893F83930E5
:1057C000DBB2212B44D17B689B68B3F5805F1AD193
:1057D0007B681B6AFB60FB681B881A467B681B683A
:1057E000C2F308025A607B681B69002B05D17B68F5
:1057F0001B6A9A1C7B681A620EE07B681B6A5A1C43
:105800007B681A6208E07B681B6A591C7A6811621F
:105810001A787B681B685A607B68DB8C9BB2013B03
:105820009BB27A681946D184002B0FD17B681B6824
:10583000DA687B681B6822F08002DA607B681B688C
:10584000DA687B681B6842F04002DA60002300E0FF
:10585000022318461437BD465DF8047B704780B5B7
:1058600082B000AF78607B681B68DA687B681B6871
:1058700022F04002DA607B68202283F839207868C1
:10588000FFF710FE002318460837BD4680BD80B5DF
:1058900084B000AF78607B6893F83A30DBB2222B9B
:1058A00071D17B689B68B3F5805F23D17B689B6A6D
:1058B000FB607B681B69002B0ED17B681B685B68F3
:1058C0009BB2C3F308039AB2FB681A807B689B6A99
:1058D0009A1C7B689A6229E07B681B685B689BB2B4
:1058E000DBB29AB2FB681A807B689B6A5A1C7B68A1
:1058F0009A621BE07B681B69002B0AD17B681B68DE
:1059000058687B689B6A591C7A689162C2B21A70A7
:105910000CE07B681B685B68DAB27B689B6A581C8A
:105920007968886202F07F02D2B21A707B68DB8DE0
:105930009BB2013B9BB27A681946D185002B20D1DE
:105940007B681B68DA687B681B6822F02002DA60DB
:105950007B681B68DA687B681B6822F48072DA60F7
:105960007B681B685A697B681B6822F001025A61D8
:105970007B68202283F83A207868FFF7A7FD002390
:1059800002E0002300E0022318461037BD4680BD28
:105990002DE9F04FBDB000AFC7F8E400D7F8E43010
:1059A0001B681B6923F44050D7F8E430D968D7F856
:1059B000E4301A6840EA01031361D7F8E4309A68CA
:1059C000D7F8E4301B691A43D7F8E4305B691A430F
:1059D000D7F8E430DB691343C7F8EC30D7F8E4308C
:1059E0001B68DB6823F4164121F00C01D7F8E43082
:1059F0001A68D7F8EC300B43D360D7F8E4301B6853
:105A00005B6923F44070D7F8E4309969D7F8E43043
:105A10001A6840EA01035361D7F8E430DB69B3F553
:105A2000004F40F0C281D7F8E4301A68704B9A42B8
:105A300006D0D7F8E4301A686E4B9A4240F0DE8008
:105A4000FDF728FBC7F8E800D7F8E8301D464FF00F
:105A500000062B463446DA18BA6744EB0403FB67AA
:105A6000D7E91E345B1946EB04044FF000014FF0F8
:105A70000002E20042EA5372D9000B4614465A195A
:105A8000C7F8D82044EB0603C7F8DC30D7F8E43079
:105A90005B684FF00004DA183A6744EB04037B6755
:105AA000D7E91C341A462346D7E93601FAF7E8FB52
:105AB00003460C461A46504BA3FB02235B094FEAF0
:105AC0000318D7F8E8301D464FF000062B46344641
:105AD000DA18BA6644EB0403FB66D7E91A345B199B
